{
  "address": "0xe7f1725E7734CE288F8367e1Bb143E90bb3F0512",
  "abi": [
    {
      "inputs": [
        {
          "internalType": "address",
          "name": "_priceFeed",
          "type": "address"
        }
      ],
      "stateMutability": "payable",
      "type": "constructor"
    },
    {
      "inputs": [],
      "name": "not_owner",
      "type": "error"
    },
    {
      "stateMutability": "payable",
      "type": "fallback"
    },
    {
      "inputs": [],
      "name": "Fund",
      "outputs": [],
      "stateMutability": "payable",
      "type": "function"
    },
    {
      "inputs": [
        {
          "internalType": "uint256",
          "name": "",
          "type": "uint256"
        }
      ],
      "name": "funders",
      "outputs": [
        {
          "internalType": "address",
          "name": "",
          "type": "address"
        }
      ],
      "stateMutability": "view",
      "type": "function"
    },
    {
      "inputs": [
        {
          "internalType": "address",
          "name": "",
          "type": "address"
        }
      ],
      "name": "fundersWithAmount",
      "outputs": [
        {
          "internalType": "uint256",
          "name": "",
          "type": "uint256"
        }
      ],
      "stateMutability": "view",
      "type": "function"
    },
    {
      "inputs": [
        {
          "internalType": "uint256",
          "name": "ethAmount",
          "type": "uint256"
        }
      ],
      "name": "getConverstionRate",
      "outputs": [
        {
          "internalType": "uint256",
          "name": "",
          "type": "uint256"
        }
      ],
      "stateMutability": "view",
      "type": "function"
    },
    {
      "inputs": [],
      "name": "getPrice",
      "outputs": [
        {
          "internalType": "uint256",
          "name": "",
          "type": "uint256"
        }
      ],
      "stateMutability": "view",
      "type": "function"
    },
    {
      "inputs": [],
      "name": "i_owner",
      "outputs": [
        {
          "internalType": "address",
          "name": "",
          "type": "address"
        }
      ],
      "stateMutability": "view",
      "type": "function"
    },
    {
      "inputs": [],
      "name": "priceFeed",
      "outputs": [
        {
          "internalType": "contract AggregatorV3Interface",
          "name": "",
          "type": "address"
        }
      ],
      "stateMutability": "view",
      "type": "function"
    },
    {
      "inputs": [],
      "name": "withdraw",
      "outputs": [],
      "stateMutability": "nonpayable",
      "type": "function"
    },
    {
      "stateMutability": "payable",
      "type": "receive"
    }
  ],
  "transactionHash": "0x6cf07190e6cf2cbedfb8f4d9f1e582264e201e5863226cd2303f194bc682f857",
  "args": [
    "0x5FbDB2315678afecb367f032d93F642f64180aa3"
  ],
  "numDeployments": 1,
  "solcInputHash": "e17c16e4ecfd88ee3d5ed3c89b676517",
  "bytecode": "0x60a0604052604051610d3b380380610d3b83398181016040528101906100259190610103565b3373ffffffffffffffffffffffffffffffffffffffff1660808173ffffffffffffffffffffffffffffffffffffffff168152505080600160006101000a81548173ffffffffffffffffffffffffffffffffffffffff021916908373ffffffffffffffffffffffffffffffffffffffff16021790555050610130565b600080fd5b600073ffffffffffffffffffffffffffffffffffffffff82169050919050565b60006100d0826100a5565b9050919050565b6100e0816100c5565b81146100eb57600080fd5b50565b6000815190506100fd816100d7565b92915050565b600060208284031215610119576101186100a0565b5b6000610127848285016100ee565b91505092915050565b608051610be9610152600039600081816102f001526105790152610be96000f3fe60806040526004361061007f5760003560e01c8063a0be05c61161004e578063a0be05c61461010f578063a4115c2a1461014c578063dba6335f14610189578063dc0d3dff146101b45761008e565b80633ccfd60b146100985780636ce1417e146100af578063741bef1a146100b957806398d5fdca146100e45761008e565b3661008e5761008c6101f1565b005b6100966101f1565b005b3480156100a457600080fd5b506100ad6102ee565b005b6100b76101f1565b005b3480156100c557600080fd5b506100ce610454565b6040516100db9190610697565b60405180910390f35b3480156100f057600080fd5b506100f961047a565b60405161010691906106cb565b60405180910390f35b34801561011b57600080fd5b5061013660048036038101906101319190610729565b61052b565b60405161014391906106cb565b60405180910390f35b34801561015857600080fd5b50610173600480360381019061016e9190610782565b610543565b60405161018091906106cb565b60405180910390f35b34801561019557600080fd5b5061019e610577565b6040516101ab91906107be565b60405180910390f35b3480156101c057600080fd5b506101db60048036038101906101d69190610782565b61059b565b6040516101e891906107be565b60405180910390f35b6802b5e3af16b188000061020434610543565b1015610245576040517f08c379a000000000000000000000000000000000000000000000000000000000815260040161023c9061085c565b60405180910390fd5b6000339080600181540180825580915050600190039060005260206000200160009091909190916101000a81548173ffffffffffffffffffffffffffffffffffffffff021916908373ffffffffffffffffffffffffffffffffffffffff16021790555034600260003373ffffffffffffffffffffffffffffffffffffffff1673ffffffffffffffffffffffffffffffffffffffff16815260200190815260200160002081905550565b7f000000000000000000000000000000000000000000000000000000000000000073ffffffffffffffffffffffffffffffffffffffff163373ffffffffffffffffffffffffffffffffffffffff1614610373576040517ff525660400000000000000000000000000000000000000000000000000000000815260040160405180910390fd5b60005b6000805490508110156104515760008061039091906105da565b60003373ffffffffffffffffffffffffffffffffffffffff16476040516103b6906108ad565b60006040518083038185875af1925050503d80600081146103f3576040519150601f19603f3d011682016040523d82523d6000602084013e6103f8565b606091505b505090508061043c576040517f08c379a00000000000000000000000000000000000000000000000000000000081526004016104339061090e565b60405180910390fd5b5060018161044a919061095d565b9050610376565b50565b600160009054906101000a900473ffffffffffffffffffffffffffffffffffffffff1681565b600080600160009054906101000a900473ffffffffffffffffffffffffffffffffffffffff1673ffffffffffffffffffffffffffffffffffffffff1663feaf968c6040518163ffffffff1660e01b815260040160a060405180830381865afa1580156104ea573d6000803e3d6000fd5b505050506040513d601f19601f8201168201806040525081019061050e9190610a1e565b5050509150506402540be400816105259190610a99565b91505090565b60026020528060005260406000206000915090505481565b60008061054e61047a565b9050670de0b6b3a764000081846105659190610b11565b61056f9190610b82565b915050919050565b7f000000000000000000000000000000000000000000000000000000000000000081565b600081815481106105ab57600080fd5b906000526020600020016000915054906101000a900473ffffffffffffffffffffffffffffffffffffffff1681565b50805460008255906000526020600020908101906105f891906105fb565b50565b5b808211156106145760008160009055506001016105fc565b5090565b600073ffffffffffffffffffffffffffffffffffffffff82169050919050565b6000819050919050565b600061065d61065861065384610618565b610638565b610618565b9050919050565b600061066f82610642565b9050919050565b600061068182610664565b9050919050565b61069181610676565b82525050565b60006020820190506106ac6000830184610688565b92915050565b6000819050919050565b6106c5816106b2565b82525050565b60006020820190506106e060008301846106bc565b92915050565b600080fd5b60006106f682610618565b9050919050565b610706816106eb565b811461071157600080fd5b50565b600081359050610723816106fd565b92915050565b60006020828403121561073f5761073e6106e6565b5b600061074d84828501610714565b91505092915050565b61075f816106b2565b811461076a57600080fd5b50565b60008135905061077c81610756565b92915050565b600060208284031215610798576107976106e6565b5b60006107a68482850161076d565b91505092915050565b6107b8816106eb565b82525050565b60006020820190506107d360008301846107af565b92915050565b600082825260208201905092915050565b7f4554482076616c7565206d7573742062652067726561746572207468616e206f60008201527f7220657175616c20746f20353020555344000000000000000000000000000000602082015250565b60006108466031836107d9565b9150610851826107ea565b604082019050919050565b6000602082019050818103600083015261087581610839565b9050919050565b600081905092915050565b50565b600061089760008361087c565b91506108a282610887565b600082019050919050565b60006108b88261088a565b9150819050919050565b7f73656e6465722063616c6c206661696c00000000000000000000000000000000600082015250565b60006108f86010836107d9565b9150610903826108c2565b602082019050919050565b60006020820190508181036000830152610927816108eb565b9050919050565b7f4e487b7100000000000000000000000000000000000000000000000000000000600052601160045260246000fd5b6000610968826106b2565b9150610973836106b2565b925082820190508082111561098b5761098a61092e565b5b92915050565b600069ffffffffffffffffffff82169050919050565b6109b081610991565b81146109bb57600080fd5b50565b6000815190506109cd816109a7565b92915050565b6000819050919050565b6109e6816109d3565b81146109f157600080fd5b50565b600081519050610a03816109dd565b92915050565b600081519050610a1881610756565b92915050565b600080600080600060a08688031215610a3a57610a396106e6565b5b6000610a48888289016109be565b9550506020610a59888289016109f4565b9450506040610a6a88828901610a09565b9350506060610a7b88828901610a09565b9250506080610a8c888289016109be565b9150509295509295909350565b6000610aa4826109d3565b9150610aaf836109d3565b9250828202610abd816109d3565b91507f80000000000000000000000000000000000000000000000000000000000000008414600084121615610af557610af461092e565b5b8282058414831517610b0a57610b0961092e565b5b5092915050565b6000610b1c826106b2565b9150610b27836106b2565b9250828202610b35816106b2565b91508282048414831517610b4c57610b4b61092e565b5b5092915050565b7f4e487b7100000000000000000000000000000000000000000000000000000000600052601260045260246000fd5b6000610b8d826106b2565b9150610b98836106b2565b925082610ba857610ba7610b53565b5b82820490509291505056fea2646970667358221220ced1236942d685433887c6236353d23836e356fa3fdfeebea2e3aa5f1bffb28164736f6c634300081c0033",
  "devdoc": {
    "kind": "dev",
    "methods": {},
    "version": 1
  },
  "userdoc": {
    "kind": "user",
    "methods": {},
    "version": 1
  },
  "storageLayout": {
    "storage": [
      {
        "astId": 316,
        "contract": "contracts/FundMe.sol:FundMe",
        "label": "funders",
        "offset": 0,
        "slot": "0",
        "type": "t_array(t_address)dyn_storage"
      },
      {
        "astId": 326,
        "contract": "contracts/FundMe.sol:FundMe",
        "label": "priceFeed",
        "offset": 0,
        "slot": "1",
        "type": "t_contract(AggregatorV3Interface)102"
      },
      {
        "astId": 347,
        "contract": "contracts/FundMe.sol:FundMe",
        "label": "fundersWithAmount",
        "offset": 0,
        "slot": "2",
        "type": "t_mapping(t_address,t_uint256)"
      }
    ],
    "types": {
      "t_address": {
        "encoding": "inplace",
        "label": "address",
        "numberOfBytes": "20"
      },
      "t_array(t_address)dyn_storage": {
        "base": "t_address",
        "encoding": "dynamic_array",
        "label": "address[]",
        "numberOfBytes": "32"
      },
      "t_contract(AggregatorV3Interface)102": {
        "encoding": "inplace",
        "label": "contract AggregatorV3Interface",
        "numberOfBytes": "20"
      },
      "t_mapping(t_address,t_uint256)": {
        "encoding": "mapping",
        "key": "t_address",
        "label": "mapping(address => uint256)",
        "numberOfBytes": "32",
        "value": "t_uint256"
      },
      "t_uint256": {
        "encoding": "inplace",
        "label": "uint256",
        "numberOfBytes": "32"
      }
    }
  }
}