{
  "address": "0xDc64a140Aa3E981100a9becA4E685f962f0cF6C9",
  "abi": [
    {
      "inputs": [
        {
          "internalType": "address",
          "name": "vrfCoordinator",
          "type": "address"
        },
        {
          "internalType": "uint256",
          "name": "entranceFee",
          "type": "uint256"
        },
        {
          "internalType": "uint256",
          "name": "subscriptionId",
          "type": "uint256"
        },
        {
          "internalType": "bytes32",
          "name": "keyHash",
          "type": "bytes32"
        },
        {
          "internalType": "uint32",
          "name": "callBackGasLimit",
          "type": "uint32"
        }
      ],
      "stateMutability": "nonpayable",
      "type": "constructor"
    },
    {
      "inputs": [],
      "name": "Lottery__NotEnoughETHForEntranceFee",
      "type": "error"
    },
    {
      "inputs": [],
      "name": "Lottery__NotOpen",
      "type": "error"
    },
    {
      "inputs": [],
      "name": "Lottery__UpkeepNotNeeded",
      "type": "error"
    },
    {
      "inputs": [],
      "name": "Lottery__WinnerTransferFailed",
      "type": "error"
    },
    {
      "inputs": [
        {
          "internalType": "address",
          "name": "have",
          "type": "address"
        },
        {
          "internalType": "address",
          "name": "want",
          "type": "address"
        }
      ],
      "name": "OnlyCoordinatorCanFulfill",
      "type": "error"
    },
    {
      "inputs": [
        {
          "internalType": "address",
          "name": "have",
          "type": "address"
        },
        {
          "internalType": "address",
          "name": "owner",
          "type": "address"
        },
        {
          "internalType": "address",
          "name": "coordinator",
          "type": "address"
        }
      ],
      "name": "OnlyOwnerOrCoordinator",
      "type": "error"
    },
    {
      "inputs": [],
      "name": "ZeroAddress",
      "type": "error"
    },
    {
      "anonymous": false,
      "inputs": [
        {
          "indexed": false,
          "internalType": "address",
          "name": "vrfCoordinator",
          "type": "address"
        }
      ],
      "name": "CoordinatorSet",
      "type": "event"
    },
    {
      "anonymous": false,
      "inputs": [
        {
          "indexed": false,
          "internalType": "uint256",
          "name": "msgValue",
          "type": "uint256"
        },
        {
          "indexed": false,
          "internalType": "uint256",
          "name": "entranceFee",
          "type": "uint256"
        }
      ],
      "name": "DebugTicketValues",
      "type": "event"
    },
    {
      "anonymous": false,
      "inputs": [
        {
          "indexed": true,
          "internalType": "address",
          "name": "from",
          "type": "address"
        },
        {
          "indexed": true,
          "internalType": "address",
          "name": "to",
          "type": "address"
        }
      ],
      "name": "OwnershipTransferRequested",
      "type": "event"
    },
    {
      "anonymous": false,
      "inputs": [
        {
          "indexed": true,
          "internalType": "address",
          "name": "from",
          "type": "address"
        },
        {
          "indexed": true,
          "internalType": "address",
          "name": "to",
          "type": "address"
        }
      ],
      "name": "OwnershipTransferred",
      "type": "event"
    },
    {
      "anonymous": false,
      "inputs": [
        {
          "indexed": true,
          "internalType": "uint256",
          "name": "requestId",
          "type": "uint256"
        }
      ],
      "name": "RequestLotteryWinner",
      "type": "event"
    },
    {
      "anonymous": false,
      "inputs": [
        {
          "indexed": true,
          "internalType": "address",
          "name": "player",
          "type": "address"
        }
      ],
      "name": "TicketBought",
      "type": "event"
    },
    {
      "anonymous": false,
      "inputs": [
        {
          "indexed": true,
          "internalType": "address",
          "name": "playerIndex",
          "type": "address"
        }
      ],
      "name": "WinnerPicked",
      "type": "event"
    },
    {
      "inputs": [],
      "name": "acceptOwnership",
      "outputs": [],
      "stateMutability": "nonpayable",
      "type": "function"
    },
    {
      "inputs": [],
      "name": "buyTicket",
      "outputs": [],
      "stateMutability": "payable",
      "type": "function"
    },
    {
      "inputs": [
        {
          "internalType": "bytes",
          "name": "",
          "type": "bytes"
        }
      ],
      "name": "checkUpkeep",
      "outputs": [
        {
          "internalType": "bool",
          "name": "upkeepNeeded",
          "type": "bool"
        },
        {
          "internalType": "bytes",
          "name": "",
          "type": "bytes"
        }
      ],
      "stateMutability": "view",
      "type": "function"
    },
    {
      "inputs": [],
      "name": "getEntranceFee",
      "outputs": [
        {
          "internalType": "uint256",
          "name": "",
          "type": "uint256"
        }
      ],
      "stateMutability": "view",
      "type": "function"
    },
    {
      "inputs": [],
      "name": "getLastestTimeStamp",
      "outputs": [
        {
          "internalType": "uint256",
          "name": "",
          "type": "uint256"
        }
      ],
      "stateMutability": "view",
      "type": "function"
    },
    {
      "inputs": [],
      "name": "getLotteryState",
      "outputs": [
        {
          "internalType": "enum Lottery.LotteryState",
          "name": "",
          "type": "uint8"
        }
      ],
      "stateMutability": "view",
      "type": "function"
    },
    {
      "inputs": [],
      "name": "getNumWords",
      "outputs": [
        {
          "internalType": "uint32",
          "name": "",
          "type": "uint32"
        }
      ],
      "stateMutability": "pure",
      "type": "function"
    },
    {
      "inputs": [],
      "name": "getNumberOfPlayers",
      "outputs": [
        {
          "internalType": "uint256",
          "name": "",
          "type": "uint256"
        }
      ],
      "stateMutability": "view",
      "type": "function"
    },
    {
      "inputs": [
        {
          "internalType": "uint256",
          "name": "index",
          "type": "uint256"
        }
      ],
      "name": "getPlayers",
      "outputs": [
        {
          "internalType": "address",
          "name": "",
          "type": "address"
        }
      ],
      "stateMutability": "view",
      "type": "function"
    },
    {
      "inputs": [],
      "name": "getRecentWinner",
      "outputs": [
        {
          "internalType": "address",
          "name": "",
          "type": "address"
        }
      ],
      "stateMutability": "view",
      "type": "function"
    },
    {
      "inputs": [],
      "name": "getSubscriptionId",
      "outputs": [
        {
          "internalType": "uint256",
          "name": "",
          "type": "uint256"
        }
      ],
      "stateMutability": "view",
      "type": "function"
    },
    {
      "inputs": [],
      "name": "owner",
      "outputs": [
        {
          "internalType": "address",
          "name": "",
          "type": "address"
        }
      ],
      "stateMutability": "view",
      "type": "function"
    },
    {
      "inputs": [
        {
          "internalType": "bytes",
          "name": "",
          "type": "bytes"
        }
      ],
      "name": "performUpkeep",
      "outputs": [],
      "stateMutability": "nonpayable",
      "type": "function"
    },
    {
      "inputs": [
        {
          "internalType": "uint256",
          "name": "requestId",
          "type": "uint256"
        },
        {
          "internalType": "uint256[]",
          "name": "randomWords",
          "type": "uint256[]"
        }
      ],
      "name": "rawFulfillRandomWords",
      "outputs": [],
      "stateMutability": "nonpayable",
      "type": "function"
    },
    {
      "inputs": [],
      "name": "requestRandomWinner",
      "outputs": [],
      "stateMutability": "nonpayable",
      "type": "function"
    },
    {
      "inputs": [],
      "name": "s_vrfCoordinator",
      "outputs": [
        {
          "internalType": "contract IVRFCoordinatorV2Plus",
          "name": "",
          "type": "address"
        }
      ],
      "stateMutability": "view",
      "type": "function"
    },
    {
      "inputs": [
        {
          "internalType": "address",
          "name": "_vrfCoordinator",
          "type": "address"
        }
      ],
      "name": "setCoordinator",
      "outputs": [],
      "stateMutability": "nonpayable",
      "type": "function"
    },
    {
      "inputs": [],
      "name": "test_setStateToCalculating",
      "outputs": [],
      "stateMutability": "nonpayable",
      "type": "function"
    },
    {
      "inputs": [
        {
          "internalType": "address",
          "name": "to",
          "type": "address"
        }
      ],
      "name": "transferOwnership",
      "outputs": [],
      "stateMutability": "nonpayable",
      "type": "function"
    }
  ],
  "transactionHash": "0x952041beaf3677003a7b983b4b5c8cb3d9990b6816c0ab625f8966b8122ef22b",
  "args": [
    "0x5FbDB2315678afecb367f032d93F642f64180aa3",
    "10000000000000000",
    "66236783407183022356232548229781529041358859055024861488795586873198506459220",
    "0x787d74caea10b2b357790d5b5247c2f63d1d91572a9846f780606e4d953677ae",
    1000000
  ],
  "numDeployments": 1,
  "solcInputHash": "a4c053eb75771ff75eeb7f77446c6e83",
  "bytecode": "0x61012060405234801561001157600080fd5b506040516124e73803806124e78339818101604052810190610033919061047f565b84338060008073ffffffffffffffffffffffffffffffffffffffff168273ffffffffffffffffffffffffffffffffffffffff16036100a6576040517f08c379a000000000000000000000000000000000000000000000000000000000815260040161009d90610557565b60405180910390fd5b816000806101000a81548173ffffffffffffffffffffffffffffffffffffffff021916908373ffffffffffffffffffffffffffffffffffffffff160217905550600073ffffffffffffffffffffffffffffffffffffffff168173ffffffffffffffffffffffffffffffffffffffff161461012a576101298161024860201b60201c565b5b505050600073ffffffffffffffffffffffffffffffffffffffff168173ffffffffffffffffffffffffffffffffffffffff1603610193576040517fd92e233d00000000000000000000000000000000000000000000000000000000815260040160405180910390fd5b80600260006101000a81548173ffffffffffffffffffffffffffffffffffffffff021916908373ffffffffffffffffffffffffffffffffffffffff160217905550508360e0818152505082608081815250508160a081815250508063ffffffff1660c08163ffffffff1681525050610e106101008181525050426007819055506000600660006101000a81548160ff0219169083600181111561023957610238610577565b5b02179055505050505050610612565b3373ffffffffffffffffffffffffffffffffffffffff168173ffffffffffffffffffffffffffffffffffffffff16036102b6576040517f08c379a00000000000000000000000000000000000000000000000000000000081526004016102ad906105f2565b60405180910390fd5b80600160006101000a81548173ffffffffffffffffffffffffffffffffffffffff021916908373ffffffffffffffffffffffffffffffffffffffff1602179055508073ffffffffffffffffffffffffffffffffffffffff1660008054906101000a900473ffffffffffffffffffffffffffffffffffffffff1673ffffffffffffffffffffffffffffffffffffffff167fed8889f560326eb138920d842192f0eb3dd22b4f139c87a2c57538e05bae127860405160405180910390a350565b600080fd5b600073ffffffffffffffffffffffffffffffffffffffff82169050919050565b60006103a482610379565b9050919050565b6103b481610399565b81146103bf57600080fd5b50565b6000815190506103d1816103ab565b92915050565b6000819050919050565b6103ea816103d7565b81146103f557600080fd5b50565b600081519050610407816103e1565b92915050565b6000819050919050565b6104208161040d565b811461042b57600080fd5b50565b60008151905061043d81610417565b92915050565b600063ffffffff82169050919050565b61045c81610443565b811461046757600080fd5b50565b60008151905061047981610453565b92915050565b600080600080600060a0868803121561049b5761049a610374565b5b60006104a9888289016103c2565b95505060206104ba888289016103f8565b94505060406104cb888289016103f8565b93505060606104dc8882890161042e565b92505060806104ed8882890161046a565b9150509295509295909350565b600082825260208201905092915050565b7f43616e6e6f7420736574206f776e657220746f207a65726f0000000000000000600082015250565b60006105416018836104fa565b915061054c8261050b565b602082019050919050565b6000602082019050818103600083015261057081610534565b9050919050565b7f4e487b7100000000000000000000000000000000000000000000000000000000600052602160045260246000fd5b7f43616e6e6f74207472616e7366657220746f2073656c66000000000000000000600082015250565b60006105dc6017836104fa565b91506105e7826105a6565b602082019050919050565b6000602082019050818103600083015261060b816105cf565b9050919050565b60805160a05160c05160e05161010051611e8361066460003960006107b101526000818161040e0152610c4e0152600061069f0152600061064801526000818161066e0152610c280152611e836000f3fe6080604052600436106101145760003560e01c806379ba5097116100a0578063de3d9fb711610064578063de3d9fb71461036a578063edca914c14610395578063f2fde38b1461039f578063f34f7ae1146103c8578063fd6673f5146103df57610114565b806379ba5097146102a95780638ba05b0e146102c05780638da5cb5b146102eb5780638ea98117146103165780639eccacf61461033f57610114565b8063473f1ddc116100e7578063473f1ddc146101d3578063522a1f0b146101fe57806353a2c19a146102155780636b68c03c146102405780636e04ff0d1461026b57610114565b806309bc33a7146101195780631fe543e3146101445780634585e33b1461016d578063460e204914610196575b600080fd5b34801561012557600080fd5b5061012e61040a565b60405161013b9190611350565b60405180910390f35b34801561015057600080fd5b5061016b60048036038101906101669190611410565b610432565b005b34801561017957600080fd5b50610194600480360381019061018f91906114c6565b6104f8565b005b3480156101a257600080fd5b506101bd60048036038101906101b89190611513565b610560565b6040516101ca9190611581565b60405180910390f35b3480156101df57600080fd5b506101e86105a8565b6040516101f59190611581565b60405180910390f35b34801561020a57600080fd5b506102136105d2565b005b34801561022157600080fd5b5061022a610789565b60405161023791906115bb565b60405180910390f35b34801561024c57600080fd5b50610255610792565b604051610262919061164d565b60405180910390f35b34801561027757600080fd5b50610292600480360381019061028d91906117a9565b6107a9565b6040516102a092919061188c565b60405180910390f35b3480156102b557600080fd5b506102be610855565b005b3480156102cc57600080fd5b506102d56109ea565b6040516102e29190611350565b60405180910390f35b3480156102f757600080fd5b506103006109f4565b60405161030d9190611581565b60405180910390f35b34801561032257600080fd5b5061033d600480360381019061033891906118e8565b610a1d565b005b34801561034b57600080fd5b50610354610bfe565b6040516103619190611974565b60405180910390f35b34801561037657600080fd5b5061037f610c24565b60405161038c9190611350565b60405180910390f35b61039d610c4c565b005b3480156103ab57600080fd5b506103c660048036038101906103c191906118e8565b610dbb565b005b3480156103d457600080fd5b506103dd610dcf565b005b3480156103eb57600080fd5b506103f4610dfc565b6040516104019190611350565b60405180910390f35b60007f0000000000000000000000000000000000000000000000000000000000000000905090565b600260009054906101000a900473ffffffffffffffffffffffffffffffffffffffff1673ffffffffffffffffffffffffffffffffffffffff163373ffffffffffffffffffffffffffffffffffffffff16146104e85733600260009054906101000a900473ffffffffffffffffffffffffffffffffffffffff166040517f1cf993f40000000000000000000000000000000000000000000000000000000081526004016104df92919061198f565b60405180910390fd5b6104f3838383610e09565b505050565b6000610512604051806020016040528060008152506107a9565b5090508061054c576040517f35ae29b400000000000000000000000000000000000000000000000000000000815260040160405180910390fd5b4260078190555061055b6105d2565b505050565b600060058281548110610576576105756119b8565b5b9060005260206000200160009054906101000a900473ffffffffffffffffffffffffffffffffffffffff169050919050565b6000600460009054906101000a900473ffffffffffffffffffffffffffffffffffffffff16905090565b6001600660006101000a81548160ff021916908360018111156105f8576105f76115d6565b5b0217905550600260009054906101000a900473ffffffffffffffffffffffffffffffffffffffff1673ffffffffffffffffffffffffffffffffffffffff16639b1c385e6040518060c001604052807f000000000000000000000000000000000000000000000000000000000000000081526020017f00000000000000000000000000000000000000000000000000000000000000008152602001600361ffff1681526020017f000000000000000000000000000000000000000000000000000000000000000063ffffffff168152602001600163ffffffff1681526020016106f060405180602001604052806000151581525061103c565b8152506040518263ffffffff1660e01b815260040161070f9190611b0e565b6020604051808303816000875af115801561072e573d6000803e3d6000fd5b505050506040513d601f19601f820116820180604052508101906107529190611b45565b6003819055506003547feddaba8a57dcfd3a637ac76edea7af81443028e0bd6e6cb23bd210a4a85ba85660405160405180910390a2565b60006001905090565b6000600660009054906101000a900460ff16905090565b6000606060007f0000000000000000000000000000000000000000000000000000000000000000600754426107de9190611ba1565b119050600080600580549050119050600080471190506000806001811115610809576108086115d6565b5b600660009054906101000a900460ff16600181111561082b5761082a6115d6565b5b1490508380156108385750825b80156108415750815b801561084a5750805b955050505050915091565b600160009054906101000a900473ffffffffffffffffffffffffffffffffffffffff1673ffffffffffffffffffffffffffffffffffffffff163373ffffffffffffffffffffffffffffffffffffffff16146108e5576040517f08c379a00000000000000000000000000000000000000000000000000000000081526004016108dc90611c32565b60405180910390fd5b60008060009054906101000a900473ffffffffffffffffffffffffffffffffffffffff169050336000806101000a81548173ffffffffffffffffffffffffffffffffffffffff021916908373ffffffffffffffffffffffffffffffffffffffff1602179055506000600160006101000a81548173ffffffffffffffffffffffffffffffffffffffff021916908373ffffffffffffffffffffffffffffffffffffffff1602179055503373ffffffffffffffffffffffffffffffffffffffff168173ffffffffffffffffffffffffffffffffffffffff167f8be0079c531659141344cd1fd0a4f28419497f9722a3daafe3b4186f6b6457e060405160405180910390a350565b6000600754905090565b60008060009054906101000a900473ffffffffffffffffffffffffffffffffffffffff16905090565b610a256109f4565b73ffffffffffffffffffffffffffffffffffffffff163373ffffffffffffffffffffffffffffffffffffffff1614158015610aae5750600260009054906101000a900473ffffffffffffffffffffffffffffffffffffffff1673ffffffffffffffffffffffffffffffffffffffff163373ffffffffffffffffffffffffffffffffffffffff1614155b15610b1d5733610abc6109f4565b600260009054906101000a900473ffffffffffffffffffffffffffffffffffffffff166040517f061db9c1000000000000000000000000000000000000000000000000000000008152600401610b1493929190611c52565b60405180910390fd5b600073ffffffffffffffffffffffffffffffffffffffff168173ffffffffffffffffffffffffffffffffffffffff1603610b83576040517fd92e233d00000000000000000000000000000000000000000000000000000000815260040160405180910390fd5b80600260006101000a81548173ffffffffffffffffffffffffffffffffffffffff021916908373ffffffffffffffffffffffffffffffffffffffff1602179055507fd1a6a14209a385a964d036e404cb5cfb71f4000cdb03c9366292430787261be681604051610bf39190611581565b60405180910390a150565b600260009054906101000a900473ffffffffffffffffffffffffffffffffffffffff1681565b60007f0000000000000000000000000000000000000000000000000000000000000000905090565b7f0000000000000000000000000000000000000000000000000000000000000000341015610ca6576040517f01f7435400000000000000000000000000000000000000000000000000000000815260040160405180910390fd5b60006001811115610cba57610cb96115d6565b5b600660009054906101000a900460ff166001811115610cdc57610cdb6115d6565b5b14610d13576040517fe76be6fc00000000000000000000000000000000000000000000000000000000815260040160405180910390fd5b6005339080600181540180825580915050600190039060005260206000200160009091909190916101000a81548173ffffffffffffffffffffffffffffffffffffffff021916908373ffffffffffffffffffffffffffffffffffffffff1602179055503373ffffffffffffffffffffffffffffffffffffffff167f22949fb111628ecd7b4062e944109804b256656bc00fc690af62b9a6105154d360405160405180910390a2565b610dc36110d4565b610dcc81611164565b50565b6001600660006101000a81548160ff02191690836001811115610df557610df46115d6565b5b0217905550565b6000600580549050905090565b600060058054905083836000818110610e2557610e246119b8565b5b90506020020135610e369190611cb8565b9050600060058281548110610e4e57610e4d6119b8565b5b9060005260206000200160009054906101000a900473ffffffffffffffffffffffffffffffffffffffff16905080600460006101000a81548173ffffffffffffffffffffffffffffffffffffffff021916908373ffffffffffffffffffffffffffffffffffffffff1602179055506000600660006101000a81548160ff02191690836001811115610ee257610ee16115d6565b5b0217905550600067ffffffffffffffff811115610f0257610f0161167e565b5b604051908082528060200260200182016040528015610f305781602001602082028036833780820191505090505b5060059080519060200190610f46929190611290565b504260078190555060008173ffffffffffffffffffffffffffffffffffffffff1647604051610f7490611d1a565b60006040518083038185875af1925050503d8060008114610fb1576040519150601f19603f3d011682016040523d82523d6000602084013e610fb6565b606091505b5050905080610ff1576040517f061104de00000000000000000000000000000000000000000000000000000000815260040160405180910390fd5b8173ffffffffffffffffffffffffffffffffffffffff167f5b690ec4a06fe979403046eaeea5b3ce38524683c3001f662c8b5a829632f7df60405160405180910390a2505050505050565b60607f92fd13387c7fe7befbc38d303d6468778fb9731bc4583f17d92989c6fcfdeaaa826040516024016110709190611d5a565b604051602081830303815290604052907bffffffffffffffffffffffffffffffffffffffffffffffffffffffff19166020820180517bffffffffffffffffffffffffffffffffffffffffffffffffffffffff83818316178352505050509050919050565b60008054906101000a900473ffffffffffffffffffffffffffffffffffffffff1673ffffffffffffffffffffffffffffffffffffffff163373ffffffffffffffffffffffffffffffffffffffff1614611162576040517f08c379a000000000000000000000000000000000000000000000000000000000815260040161115990611dc1565b60405180910390fd5b565b3373ffffffffffffffffffffffffffffffffffffffff168173ffffffffffffffffffffffffffffffffffffffff16036111d2576040517f08c379a00000000000000000000000000000000000000000000000000000000081526004016111c990611e2d565b60405180910390fd5b80600160006101000a81548173ffffffffffffffffffffffffffffffffffffffff021916908373ffffffffffffffffffffffffffffffffffffffff1602179055508073ffffffffffffffffffffffffffffffffffffffff1660008054906101000a900473ffffffffffffffffffffffffffffffffffffffff1673ffffffffffffffffffffffffffffffffffffffff167fed8889f560326eb138920d842192f0eb3dd22b4f139c87a2c57538e05bae127860405160405180910390a350565b828054828255906000526020600020908101928215611309579160200282015b828111156113085782518260006101000a81548173ffffffffffffffffffffffffffffffffffffffff021916908373ffffffffffffffffffffffffffffffffffffffff160217905550916020019190600101906112b0565b5b509050611316919061131a565b5090565b5b8082111561133357600081600090555060010161131b565b5090565b6000819050919050565b61134a81611337565b82525050565b60006020820190506113656000830184611341565b92915050565b6000604051905090565b600080fd5b600080fd5b61138881611337565b811461139357600080fd5b50565b6000813590506113a58161137f565b92915050565b600080fd5b600080fd5b600080fd5b60008083601f8401126113d0576113cf6113ab565b5b8235905067ffffffffffffffff8111156113ed576113ec6113b0565b5b602083019150836020820283011115611409576114086113b5565b5b9250929050565b60008060006040848603121561142957611428611375565b5b600061143786828701611396565b935050602084013567ffffffffffffffff8111156114585761145761137a565b5b611464868287016113ba565b92509250509250925092565b60008083601f840112611486576114856113ab565b5b8235905067ffffffffffffffff8111156114a3576114a26113b0565b5b6020830191508360018202830111156114bf576114be6113b5565b5b9250929050565b600080602083850312156114dd576114dc611375565b5b600083013567ffffffffffffffff8111156114fb576114fa61137a565b5b61150785828601611470565b92509250509250929050565b60006020828403121561152957611528611375565b5b600061153784828501611396565b91505092915050565b600073ffffffffffffffffffffffffffffffffffffffff82169050919050565b600061156b82611540565b9050919050565b61157b81611560565b82525050565b60006020820190506115966000830184611572565b92915050565b600063ffffffff82169050919050565b6115b58161159c565b82525050565b60006020820190506115d060008301846115ac565b92915050565b7f4e487b7100000000000000000000000000000000000000000000000000000000600052602160045260246000fd5b60028110611616576116156115d6565b5b50565b600081905061162782611605565b919050565b600061163782611619565b9050919050565b6116478161162c565b82525050565b6000602082019050611662600083018461163e565b92915050565b600080fd5b6000601f19601f8301169050919050565b7f4e487b7100000000000000000000000000000000000000000000000000000000600052604160045260246000fd5b6116b68261166d565b810181811067ffffffffffffffff821117156116d5576116d461167e565b5b80604052505050565b60006116e861136b565b90506116f482826116ad565b919050565b600067ffffffffffffffff8211156117145761171361167e565b5b61171d8261166d565b9050602081019050919050565b82818337600083830152505050565b600061174c611747846116f9565b6116de565b90508281526020810184848401111561176857611767611668565b5b61177384828561172a565b509392505050565b600082601f8301126117905761178f6113ab565b5b81356117a0848260208601611739565b91505092915050565b6000602082840312156117bf576117be611375565b5b600082013567ffffffffffffffff8111156117dd576117dc61137a565b5b6117e98482850161177b565b91505092915050565b60008115159050919050565b611807816117f2565b82525050565b600081519050919050565b600082825260208201905092915050565b60005b8381101561184757808201518184015260208101905061182c565b60008484015250505050565b600061185e8261180d565b6118688185611818565b9350611878818560208601611829565b6118818161166d565b840191505092915050565b60006040820190506118a160008301856117fe565b81810360208301526118b38184611853565b90509392505050565b6118c581611560565b81146118d057600080fd5b50565b6000813590506118e2816118bc565b92915050565b6000602082840312156118fe576118fd611375565b5b600061190c848285016118d3565b91505092915050565b6000819050919050565b600061193a61193561193084611540565b611915565b611540565b9050919050565b600061194c8261191f565b9050919050565b600061195e82611941565b9050919050565b61196e81611953565b82525050565b60006020820190506119896000830184611965565b92915050565b60006040820190506119a46000830185611572565b6119b16020830184611572565b9392505050565b7f4e487b7100000000000000000000000000000000000000000000000000000000600052603260045260246000fd5b6000819050919050565b6119fa816119e7565b82525050565b611a0981611337565b82525050565b600061ffff82169050919050565b611a2681611a0f565b82525050565b611a358161159c565b82525050565b600082825260208201905092915050565b6000611a578261180d565b611a618185611a3b565b9350611a71818560208601611829565b611a7a8161166d565b840191505092915050565b600060c083016000830151611a9d60008601826119f1565b506020830151611ab06020860182611a00565b506040830151611ac36040860182611a1d565b506060830151611ad66060860182611a2c565b506080830151611ae96080860182611a2c565b5060a083015184820360a0860152611b018282611a4c565b9150508091505092915050565b60006020820190508181036000830152611b288184611a85565b905092915050565b600081519050611b3f8161137f565b92915050565b600060208284031215611b5b57611b5a611375565b5b6000611b6984828501611b30565b91505092915050565b7f4e487b7100000000000000000000000000000000000000000000000000000000600052601160045260246000fd5b6000611bac82611337565b9150611bb783611337565b9250828203905081811115611bcf57611bce611b72565b5b92915050565b600082825260208201905092915050565b7f4d7573742062652070726f706f736564206f776e657200000000000000000000600082015250565b6000611c1c601683611bd5565b9150611c2782611be6565b602082019050919050565b60006020820190508181036000830152611c4b81611c0f565b9050919050565b6000606082019050611c676000830186611572565b611c746020830185611572565b611c816040830184611572565b949350505050565b7f4e487b7100000000000000000000000000000000000000000000000000000000600052601260045260246000fd5b6000611cc382611337565b9150611cce83611337565b925082611cde57611cdd611c89565b5b828206905092915050565b600081905092915050565b50565b6000611d04600083611ce9565b9150611d0f82611cf4565b600082019050919050565b6000611d2582611cf7565b9150819050919050565b611d38816117f2565b82525050565b602082016000820151611d546000850182611d2f565b50505050565b6000602082019050611d6f6000830184611d3e565b92915050565b7f4f6e6c792063616c6c61626c65206279206f776e657200000000000000000000600082015250565b6000611dab601683611bd5565b9150611db682611d75565b602082019050919050565b60006020820190508181036000830152611dda81611d9e565b9050919050565b7f43616e6e6f74207472616e7366657220746f2073656c66000000000000000000600082015250565b6000611e17601783611bd5565b9150611e2282611de1565b602082019050919050565b60006020820190508181036000830152611e4681611e0a565b905091905056fea26469706673582212209884359aa59904cdf872f49dca097c5644af7d96e67a993f4691b3531e884da164736f6c634300081c0033",
  "devdoc": {
    "kind": "dev",
    "methods": {},
    "version": 1
  },
  "userdoc": {
    "kind": "user",
    "methods": {
      "acceptOwnership()": {
        "notice": "Allows an ownership transfer to be completed by the recipient."
      },
      "owner()": {
        "notice": "Get the current owner"
      },
      "setCoordinator(address)": {
        "notice": "Sets the VRF Coordinator addressThis method should only be callable by the coordinator or contract owner"
      },
      "transferOwnership(address)": {
        "notice": "Allows an owner to begin transferring ownership to a new address."
      }
    },
    "version": 1
  },
  "storageLayout": {
    "storage": [
      {
        "astId": 97,
        "contract": "contracts/lottery.sol:Lottery",
        "label": "s_owner",
        "offset": 0,
        "slot": "0",
        "type": "t_address"
      },
      {
        "astId": 99,
        "contract": "contracts/lottery.sol:Lottery",
        "label": "s_pendingOwner",
        "offset": 0,
        "slot": "1",
        "type": "t_address"
      },
      {
        "astId": 2380,
        "contract": "contracts/lottery.sol:Lottery",
        "label": "s_vrfCoordinator",
        "offset": 0,
        "slot": "2",
        "type": "t_contract(IVRFCoordinatorV2Plus)2529"
      },
      {
        "astId": 3540,
        "contract": "contracts/lottery.sol:Lottery",
        "label": "s_requestId",
        "offset": 0,
        "slot": "3",
        "type": "t_uint256"
      },
      {
        "astId": 3542,
        "contract": "contracts/lottery.sol:Lottery",
        "label": "s_recentWinner",
        "offset": 0,
        "slot": "4",
        "type": "t_address"
      },
      {
        "astId": 3545,
        "contract": "contracts/lottery.sol:Lottery",
        "label": "s_players",
        "offset": 0,
        "slot": "5",
        "type": "t_array(t_address_payable)dyn_storage"
      },
      {
        "astId": 3550,
        "contract": "contracts/lottery.sol:Lottery",
        "label": "s_lotteryState",
        "offset": 0,
        "slot": "6",
        "type": "t_enum(LotteryState)3526"
      },
      {
        "astId": 3552,
        "contract": "contracts/lottery.sol:Lottery",
        "label": "s_lastTimeStamp",
        "offset": 0,
        "slot": "7",
        "type": "t_uint256"
      }
    ],
    "types": {
      "t_address": {
        "encoding": "inplace",
        "label": "address",
        "numberOfBytes": "20"
      },
      "t_address_payable": {
        "encoding": "inplace",
        "label": "address payable",
        "numberOfBytes": "20"
      },
      "t_array(t_address_payable)dyn_storage": {
        "base": "t_address_payable",
        "encoding": "dynamic_array",
        "label": "address payable[]",
        "numberOfBytes": "32"
      },
      "t_contract(IVRFCoordinatorV2Plus)2529": {
        "encoding": "inplace",
        "label": "contract IVRFCoordinatorV2Plus",
        "numberOfBytes": "20"
      },
      "t_enum(LotteryState)3526": {
        "encoding": "inplace",
        "label": "enum Lottery.LotteryState",
        "numberOfBytes": "1"
      },
      "t_uint256": {
        "encoding": "inplace",
        "label": "uint256",
        "numberOfBytes": "32"
      }
    }
  }
}