{
  "address": "0xe318461bF8Ce2391b85Fa0CF38558557E721520D",
  "abi": [
    {
      "inputs": [
        {
          "internalType": "address",
          "name": "_priceFeed",
          "type": "address"
        }
      ],
      "stateMutability": "payable",
      "type": "constructor"
    },
    {
      "inputs": [],
      "name": "FundMe__not_owner",
      "type": "error"
    },
    {
      "stateMutability": "payable",
      "type": "fallback"
    },
    {
      "inputs": [],
      "name": "Fund",
      "outputs": [],
      "stateMutability": "payable",
      "type": "function"
    },
    {
      "inputs": [],
      "name": "cheaperWithdraw",
      "outputs": [],
      "stateMutability": "nonpayable",
      "type": "function"
    },
    {
      "inputs": [
        {
          "internalType": "uint256",
          "name": "ethAmount",
          "type": "uint256"
        }
      ],
      "name": "getConverstionRate",
      "outputs": [
        {
          "internalType": "uint256",
          "name": "",
          "type": "uint256"
        }
      ],
      "stateMutability": "view",
      "type": "function"
    },
    {
      "inputs": [
        {
          "internalType": "uint256",
          "name": "index",
          "type": "uint256"
        }
      ],
      "name": "getFunders",
      "outputs": [
        {
          "internalType": "address",
          "name": "",
          "type": "address"
        }
      ],
      "stateMutability": "view",
      "type": "function"
    },
    {
      "inputs": [],
      "name": "getFundersLength",
      "outputs": [
        {
          "internalType": "uint256",
          "name": "",
          "type": "uint256"
        }
      ],
      "stateMutability": "view",
      "type": "function"
    },
    {
      "inputs": [],
      "name": "getPrice",
      "outputs": [
        {
          "internalType": "uint256",
          "name": "",
          "type": "uint256"
        }
      ],
      "stateMutability": "view",
      "type": "function"
    },
    {
      "inputs": [
        {
          "internalType": "address",
          "name": "funderIndex",
          "type": "address"
        }
      ],
      "name": "getsFundersWithAmount",
      "outputs": [
        {
          "internalType": "uint256",
          "name": "",
          "type": "uint256"
        }
      ],
      "stateMutability": "view",
      "type": "function"
    },
    {
      "inputs": [],
      "name": "getsPriceFeed",
      "outputs": [
        {
          "internalType": "contract AggregatorV3Interface",
          "name": "",
          "type": "address"
        }
      ],
      "stateMutability": "view",
      "type": "function"
    },
    {
      "inputs": [],
      "name": "withdraw",
      "outputs": [],
      "stateMutability": "nonpayable",
      "type": "function"
    },
    {
      "stateMutability": "payable",
      "type": "receive"
    }
  ],
  "transactionHash": "0xda44f37a7ff8ec5809ee6c67151a38e81f5754d00081d0a4a2f9f2811ba67bd3",
  "args": [
    "0x694AA1769357215DE4FAC081bf1f309aDC325306"
  ],
  "numDeployments": 4,
  "solcInputHash": "8224f531edb0b0c60aa889f4df56d4da",
  "bytecode": "0x60a060405260405161137738038061137783398181016040528101906100259190610103565b3373ffffffffffffffffffffffffffffffffffffffff1660808173ffffffffffffffffffffffffffffffffffffffff168152505080600160006101000a81548173ffffffffffffffffffffffffffffffffffffffff021916908373ffffffffffffffffffffffffffffffffffffffff16021790555050610130565b600080fd5b600073ffffffffffffffffffffffffffffffffffffffff82169050919050565b60006100d0826100a5565b9050919050565b6100e0816100c5565b81146100eb57600080fd5b50565b6000815190506100fd816100d7565b92915050565b600060208284031215610119576101186100a0565b5b6000610127848285016100ee565b91505092915050565b60805161122561015260003960008181610359015261074d01526112256000f3fe60806040526004361061008a5760003560e01c80637552558111610059578063755255811461012c57806398d5fdca14610169578063a4115c2a14610194578063be2693f0146101d1578063c90e7566146101e857610099565b80633a7b6c74146100a35780633ccfd60b146100e05780633edeb84f146100f75780636ce1417e1461012257610099565b3661009957610097610213565b005b6100a1610213565b005b3480156100af57600080fd5b506100ca60048036038101906100c59190610b4a565b610310565b6040516100d79190610bb8565b60405180910390f35b3480156100ec57600080fd5b506100f5610357565b005b34801561010357600080fd5b5061010c6105f3565b6040516101199190610c32565b60405180910390f35b61012a610213565b005b34801561013857600080fd5b50610153600480360381019061014e9190610c79565b61061d565b6040516101609190610cb5565b60405180910390f35b34801561017557600080fd5b5061017e610666565b60405161018b9190610cb5565b60405180910390f35b3480156101a057600080fd5b506101bb60048036038101906101b69190610b4a565b610717565b6040516101c89190610cb5565b60405180910390f35b3480156101dd57600080fd5b506101e661074b565b005b3480156101f457600080fd5b506101fd610994565b60405161020a9190610cb5565b60405180910390f35b6802b5e3af16b188000061022634610717565b1015610267576040517f08c379a000000000000000000000000000000000000000000000000000000000815260040161025e90610d53565b60405180910390fd5b34600260003373ffffffffffffffffffffffffffffffffffffffff1673ffffffffffffffffffffffffffffffffffffffff168152602001908152602001600020819055506000339080600181540180825580915050600190039060005260206000200160009091909190916101000a81548173ffffffffffffffffffffffffffffffffffffffff021916908373ffffffffffffffffffffffffffffffffffffffff160217905550565b600080828154811061032557610324610d73565b5b9060005260206000200160009054906101000a900473ffffffffffffffffffffffffffffffffffffffff169050919050565b7f000000000000000000000000000000000000000000000000000000000000000073ffffffffffffffffffffffffffffffffffffffff163373ffffffffffffffffffffffffffffffffffffffff16146103dc576040517fb587524500000000000000000000000000000000000000000000000000000000815260040160405180910390fd5b60005b6000805490508110156105365760006002600080848154811061040557610404610d73565b5b9060005260206000200160009054906101000a900473ffffffffffffffffffffffffffffffffffffffff1673ffffffffffffffffffffffffffffffffffffffff1673ffffffffffffffffffffffffffffffffffffffff168152602001908152602001600020819055506105296040518060400160405280601e81526020017f2066756e6465727357697468416d6f756e745b66756e6465725d203a3a200000815250600260008085815481106104be576104bd610d73565b5b9060005260206000200160009054906101000a900473ffffffffffffffffffffffffffffffffffffffff1673ffffffffffffffffffffffffffffffffffffffff1673ffffffffffffffffffffffffffffffffffffffff168152602001908152602001600020546109e5565b80806001019150506103df565b506000806105449190610ac7565b60003373ffffffffffffffffffffffffffffffffffffffff164760405161056a90610dd3565b60006040518083038185875af1925050503d80600081146105a7576040519150601f19603f3d011682016040523d82523d6000602084013e6105ac565b606091505b50509050806105f0576040517f08c379a00000000000000000000000000000000000000000000000000000000081526004016105e790610e34565b60405180910390fd5b50565b6000600160009054906101000a900473ffffffffffffffffffffffffffffffffffffffff16905090565b6000600260008373ffffffffffffffffffffffffffffffffffffffff1673ffffffffffffffffffffffffffffffffffffffff168152602001908152602001600020549050919050565b600080600160009054906101000a900473ffffffffffffffffffffffffffffffffffffffff1673ffffffffffffffffffffffffffffffffffffffff1663feaf968c6040518163ffffffff1660e01b815260040160a060405180830381865afa1580156106d6573d6000803e3d6000fd5b505050506040513d601f19601f820116820180604052508101906106fa9190610ee1565b5050509150506402540be400816107119190610f8b565b91505090565b600080610722610666565b9050670de0b6b3a764000081846107399190611003565b6107439190611074565b915050919050565b7f000000000000000000000000000000000000000000000000000000000000000073ffffffffffffffffffffffffffffffffffffffff163373ffffffffffffffffffffffffffffffffffffffff16146107d0576040517fb587524500000000000000000000000000000000000000000000000000000000815260040160405180910390fd5b60008080548060200260200160405190810160405280929190818152602001828054801561085357602002820191906000526020600020905b8160009054906101000a900473ffffffffffffffffffffffffffffffffffffffff1673ffffffffffffffffffffffffffffffffffffffff1681526020019060010190808311610809575b5050505050905060005b81518110156108d25760006002600084848151811061087f5761087e610d73565b5b602002602001015173ffffffffffffffffffffffffffffffffffffffff1673ffffffffffffffffffffffffffffffffffffffff16815260200190815260200160002081905550808060010191505061085d565b506000806108e09190610ac7565b6060905060003373ffffffffffffffffffffffffffffffffffffffff164760405161090a90610dd3565b60006040518083038185875af1925050503d8060008114610947576040519150601f19603f3d011682016040523d82523d6000602084013e61094c565b606091505b5050905080610990576040517f08c379a0000000000000000000000000000000000000000000000000000000008152600401610987906110f1565b60405180910390fd5b5050565b60006109da6040518060400160405280601181526020017f6765745f735f66756e64657273203a3a200000000000000000000000000000008152506000805490506109e5565b600080549050905090565b610a7d82826040516024016109fb929190611190565b6040516020818303038152906040527fb60e72cc000000000000000000000000000000000000000000000000000000007bffffffffffffffffffffffffffffffffffffffffffffffffffffffff19166020820180517bffffffffffffffffffffffffffffffffffffffffffffffffffffffff8381831617835250505050610a81565b5050565b610a9881610a90610a9b610abc565b63ffffffff16565b50565b60006a636f6e736f6c652e6c6f679050600080835160208501845afa505050565b610ae8819050919050565b5080546000825590600052602060002090810190610ae59190610af2565b50565b610af06111c0565b565b5b80821115610b0b576000816000905550600101610af3565b5090565b600080fd5b6000819050919050565b610b2781610b14565b8114610b3257600080fd5b50565b600081359050610b4481610b1e565b92915050565b600060208284031215610b6057610b5f610b0f565b5b6000610b6e84828501610b35565b91505092915050565b600073ffffffffffffffffffffffffffffffffffffffff82169050919050565b6000610ba282610b77565b9050919050565b610bb281610b97565b82525050565b6000602082019050610bcd6000830184610ba9565b92915050565b6000819050919050565b6000610bf8610bf3610bee84610b77565b610bd3565b610b77565b9050919050565b6000610c0a82610bdd565b9050919050565b6000610c1c82610bff565b9050919050565b610c2c81610c11565b82525050565b6000602082019050610c476000830184610c23565b92915050565b610c5681610b97565b8114610c6157600080fd5b50565b600081359050610c7381610c4d565b92915050565b600060208284031215610c8f57610c8e610b0f565b5b6000610c9d84828501610c64565b91505092915050565b610caf81610b14565b82525050565b6000602082019050610cca6000830184610ca6565b92915050565b600082825260208201905092915050565b7f4554482076616c7565206d7573742062652067726561746572207468616e206f60008201527f7220657175616c20746f20353020555344000000000000000000000000000000602082015250565b6000610d3d603183610cd0565b9150610d4882610ce1565b604082019050919050565b60006020820190508181036000830152610d6c81610d30565b9050919050565b7f4e487b7100000000000000000000000000000000000000000000000000000000600052603260045260246000fd5b600081905092915050565b50565b6000610dbd600083610da2565b9150610dc882610dad565b600082019050919050565b6000610dde82610db0565b9150819050919050565b7f73656e6465722063616c6c206661696c00000000000000000000000000000000600082015250565b6000610e1e601083610cd0565b9150610e2982610de8565b602082019050919050565b60006020820190508181036000830152610e4d81610e11565b9050919050565b600069ffffffffffffffffffff82169050919050565b610e7381610e54565b8114610e7e57600080fd5b50565b600081519050610e9081610e6a565b92915050565b6000819050919050565b610ea981610e96565b8114610eb457600080fd5b50565b600081519050610ec681610ea0565b92915050565b600081519050610edb81610b1e565b92915050565b600080600080600060a08688031215610efd57610efc610b0f565b5b6000610f0b88828901610e81565b9550506020610f1c88828901610eb7565b9450506040610f2d88828901610ecc565b9350506060610f3e88828901610ecc565b9250506080610f4f88828901610e81565b9150509295509295909350565b7f4e487b7100000000000000000000000000000000000000000000000000000000600052601160045260246000fd5b6000610f9682610e96565b9150610fa183610e96565b9250828202610faf81610e96565b91507f80000000000000000000000000000000000000000000000000000000000000008414600084121615610fe757610fe6610f5c565b5b8282058414831517610ffc57610ffb610f5c565b5b5092915050565b600061100e82610b14565b915061101983610b14565b925082820261102781610b14565b9150828204841483151761103e5761103d610f5c565b5b5092915050565b7f4e487b7100000000000000000000000000000000000000000000000000000000600052601260045260246000fd5b600061107f82610b14565b915061108a83610b14565b92508261109a57611099611045565b5b828204905092915050565b7f73656e6465722063616c6c206661696c202d2077697468647261770000000000600082015250565b60006110db601b83610cd0565b91506110e6826110a5565b602082019050919050565b6000602082019050818103600083015261110a816110ce565b9050919050565b600081519050919050565b60005b8381101561113a57808201518184015260208101905061111f565b60008484015250505050565b6000601f19601f8301169050919050565b600061116282611111565b61116c8185610cd0565b935061117c81856020860161111c565b61118581611146565b840191505092915050565b600060408201905081810360008301526111aa8185611157565b90506111b96020830184610ca6565b9392505050565b7f4e487b7100000000000000000000000000000000000000000000000000000000600052605160045260246000fdfea264697066735822122063aee39739345b721df1b06ed493f25fa154ae1aefe1736e4befd332cc61490f64736f6c634300081c0033",
  "devdoc": {
    "kind": "dev",
    "methods": {},
    "version": 1
  },
  "userdoc": {
    "kind": "user",
    "methods": {},
    "version": 1
  },
  "storageLayout": {
    "storage": [
      {
        "astId": 319,
        "contract": "contracts/FundMe.sol:FundMe",
        "label": "s_funders",
        "offset": 0,
        "slot": "0",
        "type": "t_array(t_address)dyn_storage"
      },
      {
        "astId": 327,
        "contract": "contracts/FundMe.sol:FundMe",
        "label": "s_priceFeed",
        "offset": 0,
        "slot": "1",
        "type": "t_contract(AggregatorV3Interface)102"
      },
      {
        "astId": 331,
        "contract": "contracts/FundMe.sol:FundMe",
        "label": "s_fundersWithAmount",
        "offset": 0,
        "slot": "2",
        "type": "t_mapping(t_address,t_uint256)"
      }
    ],
    "types": {
      "t_address": {
        "encoding": "inplace",
        "label": "address",
        "numberOfBytes": "20"
      },
      "t_array(t_address)dyn_storage": {
        "base": "t_address",
        "encoding": "dynamic_array",
        "label": "address[]",
        "numberOfBytes": "32"
      },
      "t_contract(AggregatorV3Interface)102": {
        "encoding": "inplace",
        "label": "contract AggregatorV3Interface",
        "numberOfBytes": "20"
      },
      "t_mapping(t_address,t_uint256)": {
        "encoding": "mapping",
        "key": "t_address",
        "label": "mapping(address => uint256)",
        "numberOfBytes": "32",
        "value": "t_uint256"
      },
      "t_uint256": {
        "encoding": "inplace",
        "label": "uint256",
        "numberOfBytes": "32"
      }
    }
  }
}