{
  "address": "0x78D396e85030Ea648e447c16341cb815349F6326",
  "abi": [
    {
      "inputs": [
        {
          "internalType": "address",
          "name": "_priceFeed",
          "type": "address"
        }
      ],
      "stateMutability": "payable",
      "type": "constructor"
    },
    {
      "inputs": [],
      "name": "FundMe__not_owner",
      "type": "error"
    },
    {
      "stateMutability": "payable",
      "type": "fallback"
    },
    {
      "inputs": [],
      "name": "Fund",
      "outputs": [],
      "stateMutability": "payable",
      "type": "function"
    },
    {
      "inputs": [],
      "name": "cheaperWithdraw",
      "outputs": [],
      "stateMutability": "nonpayable",
      "type": "function"
    },
    {
      "inputs": [
        {
          "internalType": "uint256",
          "name": "ethAmount",
          "type": "uint256"
        }
      ],
      "name": "getConverstionRate",
      "outputs": [
        {
          "internalType": "uint256",
          "name": "",
          "type": "uint256"
        }
      ],
      "stateMutability": "view",
      "type": "function"
    },
    {
      "inputs": [
        {
          "internalType": "uint256",
          "name": "index",
          "type": "uint256"
        }
      ],
      "name": "getFunders",
      "outputs": [
        {
          "internalType": "address",
          "name": "",
          "type": "address"
        }
      ],
      "stateMutability": "view",
      "type": "function"
    },
    {
      "inputs": [],
      "name": "getFundersLength",
      "outputs": [
        {
          "internalType": "uint256",
          "name": "",
          "type": "uint256"
        }
      ],
      "stateMutability": "view",
      "type": "function"
    },
    {
      "inputs": [],
      "name": "getPrice",
      "outputs": [
        {
          "internalType": "uint256",
          "name": "",
          "type": "uint256"
        }
      ],
      "stateMutability": "view",
      "type": "function"
    },
    {
      "inputs": [
        {
          "internalType": "address",
          "name": "funderIndex",
          "type": "address"
        }
      ],
      "name": "getsFundersWithAmount",
      "outputs": [
        {
          "internalType": "uint256",
          "name": "",
          "type": "uint256"
        }
      ],
      "stateMutability": "view",
      "type": "function"
    },
    {
      "inputs": [],
      "name": "getsPriceFeed",
      "outputs": [
        {
          "internalType": "contract AggregatorV3Interface",
          "name": "",
          "type": "address"
        }
      ],
      "stateMutability": "view",
      "type": "function"
    },
    {
      "inputs": [],
      "name": "withdraw",
      "outputs": [],
      "stateMutability": "nonpayable",
      "type": "function"
    },
    {
      "stateMutability": "payable",
      "type": "receive"
    }
  ],
  "transactionHash": "0xdee2281485aec6b2dddf78b839dcf794c8854a4cc426c5943452a2072d3ea634",
  "args": [
    "0x694AA1769357215DE4FAC081bf1f309aDC325306"
  ],
  "numDeployments": 3,
  "solcInputHash": "ae2c1179a43ed796aba1b55fd6e86fde",
  "bytecode": "0x60a060405260405161137638038061137683398181016040528101906100259190610103565b3373ffffffffffffffffffffffffffffffffffffffff1660808173ffffffffffffffffffffffffffffffffffffffff168152505080600160006101000a81548173ffffffffffffffffffffffffffffffffffffffff021916908373ffffffffffffffffffffffffffffffffffffffff16021790555050610130565b600080fd5b600073ffffffffffffffffffffffffffffffffffffffff82169050919050565b60006100d0826100a5565b9050919050565b6100e0816100c5565b81146100eb57600080fd5b50565b6000815190506100fd816100d7565b92915050565b600060208284031215610119576101186100a0565b5b6000610127848285016100ee565b91505092915050565b60805161122461015260003960008181610358015261074c01526112246000f3fe60806040526004361061008a5760003560e01c80637552558111610059578063755255811461012c57806398d5fdca14610169578063a4115c2a14610194578063be2693f0146101d1578063c90e7566146101e857610099565b80633a7b6c74146100a35780633ccfd60b146100e05780633edeb84f146100f75780636ce1417e1461012257610099565b3661009957610097610213565b005b6100a1610213565b005b3480156100af57600080fd5b506100ca60048036038101906100c59190610b49565b61030f565b6040516100d79190610bb7565b60405180910390f35b3480156100ec57600080fd5b506100f5610356565b005b34801561010357600080fd5b5061010c6105f2565b6040516101199190610c31565b60405180910390f35b61012a610213565b005b34801561013857600080fd5b50610153600480360381019061014e9190610c78565b61061c565b6040516101609190610cb4565b60405180910390f35b34801561017557600080fd5b5061017e610665565b60405161018b9190610cb4565b60405180910390f35b3480156101a057600080fd5b506101bb60048036038101906101b69190610b49565b610716565b6040516101c89190610cb4565b60405180910390f35b3480156101dd57600080fd5b506101e661074a565b005b3480156101f457600080fd5b506101fd610993565b60405161020a9190610cb4565b60405180910390f35b674563918244f4000061022534610716565b1015610266576040517f08c379a000000000000000000000000000000000000000000000000000000000815260040161025d90610d52565b60405180910390fd5b34600260003373ffffffffffffffffffffffffffffffffffffffff1673ffffffffffffffffffffffffffffffffffffffff168152602001908152602001600020819055506000339080600181540180825580915050600190039060005260206000200160009091909190916101000a81548173ffffffffffffffffffffffffffffffffffffffff021916908373ffffffffffffffffffffffffffffffffffffffff160217905550565b600080828154811061032457610323610d72565b5b9060005260206000200160009054906101000a900473ffffffffffffffffffffffffffffffffffffffff169050919050565b7f000000000000000000000000000000000000000000000000000000000000000073ffffffffffffffffffffffffffffffffffffffff163373ffffffffffffffffffffffffffffffffffffffff16146103db576040517fb587524500000000000000000000000000000000000000000000000000000000815260040160405180910390fd5b60005b6000805490508110156105355760006002600080848154811061040457610403610d72565b5b9060005260206000200160009054906101000a900473ffffffffffffffffffffffffffffffffffffffff1673ffffffffffffffffffffffffffffffffffffffff1673ffffffffffffffffffffffffffffffffffffffff168152602001908152602001600020819055506105286040518060400160405280601e81526020017f2066756e6465727357697468416d6f756e745b66756e6465725d203a3a200000815250600260008085815481106104bd576104bc610d72565b5b9060005260206000200160009054906101000a900473ffffffffffffffffffffffffffffffffffffffff1673ffffffffffffffffffffffffffffffffffffffff1673ffffffffffffffffffffffffffffffffffffffff168152602001908152602001600020546109e4565b80806001019150506103de565b506000806105439190610ac6565b60003373ffffffffffffffffffffffffffffffffffffffff164760405161056990610dd2565b60006040518083038185875af1925050503d80600081146105a6576040519150601f19603f3d011682016040523d82523d6000602084013e6105ab565b606091505b50509050806105ef576040517f08c379a00000000000000000000000000000000000000000000000000000000081526004016105e690610e33565b60405180910390fd5b50565b6000600160009054906101000a900473ffffffffffffffffffffffffffffffffffffffff16905090565b6000600260008373ffffffffffffffffffffffffffffffffffffffff1673ffffffffffffffffffffffffffffffffffffffff168152602001908152602001600020549050919050565b600080600160009054906101000a900473ffffffffffffffffffffffffffffffffffffffff1673ffffffffffffffffffffffffffffffffffffffff1663feaf968c6040518163ffffffff1660e01b815260040160a060405180830381865afa1580156106d5573d6000803e3d6000fd5b505050506040513d601f19601f820116820180604052508101906106f99190610ee0565b5050509150506402540be400816107109190610f8a565b91505090565b600080610721610665565b9050670de0b6b3a764000081846107389190611002565b6107429190611073565b915050919050565b7f000000000000000000000000000000000000000000000000000000000000000073ffffffffffffffffffffffffffffffffffffffff163373ffffffffffffffffffffffffffffffffffffffff16146107cf576040517fb587524500000000000000000000000000000000000000000000000000000000815260040160405180910390fd5b60008080548060200260200160405190810160405280929190818152602001828054801561085257602002820191906000526020600020905b8160009054906101000a900473ffffffffffffffffffffffffffffffffffffffff1673ffffffffffffffffffffffffffffffffffffffff1681526020019060010190808311610808575b5050505050905060005b81518110156108d15760006002600084848151811061087e5761087d610d72565b5b602002602001015173ffffffffffffffffffffffffffffffffffffffff1673ffffffffffffffffffffffffffffffffffffffff16815260200190815260200160002081905550808060010191505061085c565b506000806108df9190610ac6565b6060905060003373ffffffffffffffffffffffffffffffffffffffff164760405161090990610dd2565b60006040518083038185875af1925050503d8060008114610946576040519150601f19603f3d011682016040523d82523d6000602084013e61094b565b606091505b505090508061098f576040517f08c379a0000000000000000000000000000000000000000000000000000000008152600401610986906110f0565b60405180910390fd5b5050565b60006109d96040518060400160405280601181526020017f6765745f735f66756e64657273203a3a200000000000000000000000000000008152506000805490506109e4565b600080549050905090565b610a7c82826040516024016109fa92919061118f565b6040516020818303038152906040527fb60e72cc000000000000000000000000000000000000000000000000000000007bffffffffffffffffffffffffffffffffffffffffffffffffffffffff19166020820180517bffffffffffffffffffffffffffffffffffffffffffffffffffffffff8381831617835250505050610a80565b5050565b610a9781610a8f610a9a610abb565b63ffffffff16565b50565b60006a636f6e736f6c652e6c6f679050600080835160208501845afa505050565b610ae7819050919050565b5080546000825590600052602060002090810190610ae49190610af1565b50565b610aef6111bf565b565b5b80821115610b0a576000816000905550600101610af2565b5090565b600080fd5b6000819050919050565b610b2681610b13565b8114610b3157600080fd5b50565b600081359050610b4381610b1d565b92915050565b600060208284031215610b5f57610b5e610b0e565b5b6000610b6d84828501610b34565b91505092915050565b600073ffffffffffffffffffffffffffffffffffffffff82169050919050565b6000610ba182610b76565b9050919050565b610bb181610b96565b82525050565b6000602082019050610bcc6000830184610ba8565b92915050565b6000819050919050565b6000610bf7610bf2610bed84610b76565b610bd2565b610b76565b9050919050565b6000610c0982610bdc565b9050919050565b6000610c1b82610bfe565b9050919050565b610c2b81610c10565b82525050565b6000602082019050610c466000830184610c22565b92915050565b610c5581610b96565b8114610c6057600080fd5b50565b600081359050610c7281610c4c565b92915050565b600060208284031215610c8e57610c8d610b0e565b5b6000610c9c84828501610c63565b91505092915050565b610cae81610b13565b82525050565b6000602082019050610cc96000830184610ca5565b92915050565b600082825260208201905092915050565b7f4554482076616c7565206d7573742062652067726561746572207468616e206f60008201527f7220657175616c20746f20353020555344000000000000000000000000000000602082015250565b6000610d3c603183610ccf565b9150610d4782610ce0565b604082019050919050565b60006020820190508181036000830152610d6b81610d2f565b9050919050565b7f4e487b7100000000000000000000000000000000000000000000000000000000600052603260045260246000fd5b600081905092915050565b50565b6000610dbc600083610da1565b9150610dc782610dac565b600082019050919050565b6000610ddd82610daf565b9150819050919050565b7f73656e6465722063616c6c206661696c00000000000000000000000000000000600082015250565b6000610e1d601083610ccf565b9150610e2882610de7565b602082019050919050565b60006020820190508181036000830152610e4c81610e10565b9050919050565b600069ffffffffffffffffffff82169050919050565b610e7281610e53565b8114610e7d57600080fd5b50565b600081519050610e8f81610e69565b92915050565b6000819050919050565b610ea881610e95565b8114610eb357600080fd5b50565b600081519050610ec581610e9f565b92915050565b600081519050610eda81610b1d565b92915050565b600080600080600060a08688031215610efc57610efb610b0e565b5b6000610f0a88828901610e80565b9550506020610f1b88828901610eb6565b9450506040610f2c88828901610ecb565b9350506060610f3d88828901610ecb565b9250506080610f4e88828901610e80565b9150509295509295909350565b7f4e487b7100000000000000000000000000000000000000000000000000000000600052601160045260246000fd5b6000610f9582610e95565b9150610fa083610e95565b9250828202610fae81610e95565b91507f80000000000000000000000000000000000000000000000000000000000000008414600084121615610fe657610fe5610f5b565b5b8282058414831517610ffb57610ffa610f5b565b5b5092915050565b600061100d82610b13565b915061101883610b13565b925082820261102681610b13565b9150828204841483151761103d5761103c610f5b565b5b5092915050565b7f4e487b7100000000000000000000000000000000000000000000000000000000600052601260045260246000fd5b600061107e82610b13565b915061108983610b13565b92508261109957611098611044565b5b828204905092915050565b7f73656e6465722063616c6c206661696c202d2077697468647261770000000000600082015250565b60006110da601b83610ccf565b91506110e5826110a4565b602082019050919050565b60006020820190508181036000830152611109816110cd565b9050919050565b600081519050919050565b60005b8381101561113957808201518184015260208101905061111e565b60008484015250505050565b6000601f19601f8301169050919050565b600061116182611110565b61116b8185610ccf565b935061117b81856020860161111b565b61118481611145565b840191505092915050565b600060408201905081810360008301526111a98185611156565b90506111b86020830184610ca5565b9392505050565b7f4e487b7100000000000000000000000000000000000000000000000000000000600052605160045260246000fdfea26469706673582212201793e0f280eae5831ee192398830eead7eb2f4f01bf8917046f6f60f0565bcfa64736f6c634300081c0033",
  "devdoc": {
    "kind": "dev",
    "methods": {},
    "version": 1
  },
  "userdoc": {
    "kind": "user",
    "methods": {},
    "version": 1
  },
  "storageLayout": {
    "storage": [
      {
        "astId": 319,
        "contract": "contracts/FundMe.sol:FundMe",
        "label": "s_funders",
        "offset": 0,
        "slot": "0",
        "type": "t_array(t_address)dyn_storage"
      },
      {
        "astId": 327,
        "contract": "contracts/FundMe.sol:FundMe",
        "label": "s_priceFeed",
        "offset": 0,
        "slot": "1",
        "type": "t_contract(AggregatorV3Interface)102"
      },
      {
        "astId": 331,
        "contract": "contracts/FundMe.sol:FundMe",
        "label": "s_fundersWithAmount",
        "offset": 0,
        "slot": "2",
        "type": "t_mapping(t_address,t_uint256)"
      }
    ],
    "types": {
      "t_address": {
        "encoding": "inplace",
        "label": "address",
        "numberOfBytes": "20"
      },
      "t_array(t_address)dyn_storage": {
        "base": "t_address",
        "encoding": "dynamic_array",
        "label": "address[]",
        "numberOfBytes": "32"
      },
      "t_contract(AggregatorV3Interface)102": {
        "encoding": "inplace",
        "label": "contract AggregatorV3Interface",
        "numberOfBytes": "20"
      },
      "t_mapping(t_address,t_uint256)": {
        "encoding": "mapping",
        "key": "t_address",
        "label": "mapping(address => uint256)",
        "numberOfBytes": "32",
        "value": "t_uint256"
      },
      "t_uint256": {
        "encoding": "inplace",
        "label": "uint256",
        "numberOfBytes": "32"
      }
    }
  }
}