{
  "address": "0x46C840f725EcCb39BD9eBF2edcE41Eb8f7b3897B",
  "abi": [
    {
      "inputs": [
        {
          "internalType": "address",
          "name": "vrfCoordinator",
          "type": "address"
        },
        {
          "internalType": "uint256",
          "name": "entranceFee",
          "type": "uint256"
        },
        {
          "internalType": "uint256",
          "name": "subscriptionId",
          "type": "uint256"
        },
        {
          "internalType": "bytes32",
          "name": "keyHash",
          "type": "bytes32"
        },
        {
          "internalType": "uint32",
          "name": "callBackGasLimit",
          "type": "uint32"
        }
      ],
      "stateMutability": "nonpayable",
      "type": "constructor"
    },
    {
      "inputs": [],
      "name": "Lottery__NotEnoughETHForEntranceFee",
      "type": "error"
    },
    {
      "inputs": [],
      "name": "Lottery__NotOpen",
      "type": "error"
    },
    {
      "inputs": [],
      "name": "Lottery__UpkeepNotNeeded",
      "type": "error"
    },
    {
      "inputs": [],
      "name": "Lottery__WinnerTransferFailed",
      "type": "error"
    },
    {
      "inputs": [
        {
          "internalType": "address",
          "name": "have",
          "type": "address"
        },
        {
          "internalType": "address",
          "name": "want",
          "type": "address"
        }
      ],
      "name": "OnlyCoordinatorCanFulfill",
      "type": "error"
    },
    {
      "inputs": [
        {
          "internalType": "address",
          "name": "have",
          "type": "address"
        },
        {
          "internalType": "address",
          "name": "owner",
          "type": "address"
        },
        {
          "internalType": "address",
          "name": "coordinator",
          "type": "address"
        }
      ],
      "name": "OnlyOwnerOrCoordinator",
      "type": "error"
    },
    {
      "inputs": [],
      "name": "ZeroAddress",
      "type": "error"
    },
    {
      "anonymous": false,
      "inputs": [
        {
          "indexed": false,
          "internalType": "address",
          "name": "vrfCoordinator",
          "type": "address"
        }
      ],
      "name": "CoordinatorSet",
      "type": "event"
    },
    {
      "anonymous": false,
      "inputs": [
        {
          "indexed": true,
          "internalType": "address",
          "name": "from",
          "type": "address"
        },
        {
          "indexed": true,
          "internalType": "address",
          "name": "to",
          "type": "address"
        }
      ],
      "name": "OwnershipTransferRequested",
      "type": "event"
    },
    {
      "anonymous": false,
      "inputs": [
        {
          "indexed": true,
          "internalType": "address",
          "name": "from",
          "type": "address"
        },
        {
          "indexed": true,
          "internalType": "address",
          "name": "to",
          "type": "address"
        }
      ],
      "name": "OwnershipTransferred",
      "type": "event"
    },
    {
      "anonymous": false,
      "inputs": [
        {
          "indexed": true,
          "internalType": "uint256",
          "name": "requestId",
          "type": "uint256"
        }
      ],
      "name": "RequestLotteryWinner",
      "type": "event"
    },
    {
      "anonymous": false,
      "inputs": [
        {
          "indexed": true,
          "internalType": "address",
          "name": "player",
          "type": "address"
        }
      ],
      "name": "TicketBought",
      "type": "event"
    },
    {
      "anonymous": false,
      "inputs": [
        {
          "indexed": true,
          "internalType": "address",
          "name": "playerIndex",
          "type": "address"
        }
      ],
      "name": "WinnerPicked",
      "type": "event"
    },
    {
      "inputs": [],
      "name": "acceptOwnership",
      "outputs": [],
      "stateMutability": "nonpayable",
      "type": "function"
    },
    {
      "inputs": [],
      "name": "buyTicket",
      "outputs": [],
      "stateMutability": "payable",
      "type": "function"
    },
    {
      "inputs": [
        {
          "internalType": "bytes",
          "name": "",
          "type": "bytes"
        }
      ],
      "name": "checkUpkeep",
      "outputs": [
        {
          "internalType": "bool",
          "name": "upkeepNeeded",
          "type": "bool"
        },
        {
          "internalType": "bytes",
          "name": "",
          "type": "bytes"
        }
      ],
      "stateMutability": "view",
      "type": "function"
    },
    {
      "inputs": [],
      "name": "getEntranceFee",
      "outputs": [
        {
          "internalType": "uint256",
          "name": "",
          "type": "uint256"
        }
      ],
      "stateMutability": "view",
      "type": "function"
    },
    {
      "inputs": [],
      "name": "getLastestTimeStamp",
      "outputs": [
        {
          "internalType": "uint256",
          "name": "",
          "type": "uint256"
        }
      ],
      "stateMutability": "view",
      "type": "function"
    },
    {
      "inputs": [],
      "name": "getLotteryState",
      "outputs": [
        {
          "internalType": "enum Lottery.LotteryState",
          "name": "",
          "type": "uint8"
        }
      ],
      "stateMutability": "view",
      "type": "function"
    },
    {
      "inputs": [],
      "name": "getNumWords",
      "outputs": [
        {
          "internalType": "uint32",
          "name": "",
          "type": "uint32"
        }
      ],
      "stateMutability": "pure",
      "type": "function"
    },
    {
      "inputs": [],
      "name": "getNumberOfPlayers",
      "outputs": [
        {
          "internalType": "uint256",
          "name": "",
          "type": "uint256"
        }
      ],
      "stateMutability": "view",
      "type": "function"
    },
    {
      "inputs": [
        {
          "internalType": "uint256",
          "name": "index",
          "type": "uint256"
        }
      ],
      "name": "getPlayers",
      "outputs": [
        {
          "internalType": "address",
          "name": "",
          "type": "address"
        }
      ],
      "stateMutability": "view",
      "type": "function"
    },
    {
      "inputs": [],
      "name": "getRecentWinner",
      "outputs": [
        {
          "internalType": "address",
          "name": "",
          "type": "address"
        }
      ],
      "stateMutability": "view",
      "type": "function"
    },
    {
      "inputs": [],
      "name": "getSubscriptionId",
      "outputs": [
        {
          "internalType": "uint256",
          "name": "",
          "type": "uint256"
        }
      ],
      "stateMutability": "view",
      "type": "function"
    },
    {
      "inputs": [],
      "name": "owner",
      "outputs": [
        {
          "internalType": "address",
          "name": "",
          "type": "address"
        }
      ],
      "stateMutability": "view",
      "type": "function"
    },
    {
      "inputs": [
        {
          "internalType": "bytes",
          "name": "",
          "type": "bytes"
        }
      ],
      "name": "performUpkeep",
      "outputs": [],
      "stateMutability": "nonpayable",
      "type": "function"
    },
    {
      "inputs": [
        {
          "internalType": "uint256",
          "name": "requestId",
          "type": "uint256"
        },
        {
          "internalType": "uint256[]",
          "name": "randomWords",
          "type": "uint256[]"
        }
      ],
      "name": "rawFulfillRandomWords",
      "outputs": [],
      "stateMutability": "nonpayable",
      "type": "function"
    },
    {
      "inputs": [],
      "name": "requestRandomWinner",
      "outputs": [],
      "stateMutability": "nonpayable",
      "type": "function"
    },
    {
      "inputs": [],
      "name": "s_vrfCoordinator",
      "outputs": [
        {
          "internalType": "contract IVRFCoordinatorV2Plus",
          "name": "",
          "type": "address"
        }
      ],
      "stateMutability": "view",
      "type": "function"
    },
    {
      "inputs": [
        {
          "internalType": "address",
          "name": "_vrfCoordinator",
          "type": "address"
        }
      ],
      "name": "setCoordinator",
      "outputs": [],
      "stateMutability": "nonpayable",
      "type": "function"
    },
    {
      "inputs": [],
      "name": "test_setStateToCalculating",
      "outputs": [],
      "stateMutability": "nonpayable",
      "type": "function"
    },
    {
      "inputs": [
        {
          "internalType": "address",
          "name": "to",
          "type": "address"
        }
      ],
      "name": "transferOwnership",
      "outputs": [],
      "stateMutability": "nonpayable",
      "type": "function"
    }
  ],
  "transactionHash": "0x79bb87a66b7eb08cb1ea03ac6d0373c8e1942f86b957280adbe440683af61580",
  "args": [
    "0x9DdfaCa8183c41ad55329BdeeD9F6A8d53168B1B",
    "10000000000000000",
    "52704553669593647193056605671921566117744581563379245173496672858513823778418",
    "0x787d74caea10b2b357790d5b5247c2f63d1d91572a9846f780606e4d953677ae",
    1000000
  ],
  "numDeployments": 1,
  "solcInputHash": "68f5d35e4bdf84c8a5285c51ca451bce",
  "bytecode": "0x61012060405234801561001157600080fd5b506040516124243803806124248339818101604052810190610033919061047e565b84338060008073ffffffffffffffffffffffffffffffffffffffff168273ffffffffffffffffffffffffffffffffffffffff16036100a6576040517f08c379a000000000000000000000000000000000000000000000000000000000815260040161009d90610556565b60405180910390fd5b816000806101000a81548173ffffffffffffffffffffffffffffffffffffffff021916908373ffffffffffffffffffffffffffffffffffffffff160217905550600073ffffffffffffffffffffffffffffffffffffffff168173ffffffffffffffffffffffffffffffffffffffff161461012a576101298161024760201b60201c565b5b505050600073ffffffffffffffffffffffffffffffffffffffff168173ffffffffffffffffffffffffffffffffffffffff1603610193576040517fd92e233d00000000000000000000000000000000000000000000000000000000815260040160405180910390fd5b80600260006101000a81548173ffffffffffffffffffffffffffffffffffffffff021916908373ffffffffffffffffffffffffffffffffffffffff160217905550508360e0818152505082608081815250508160a081815250508063ffffffff1660c08163ffffffff1681525050601e6101008181525050426007819055506000600660006101000a81548160ff0219169083600181111561023857610237610576565b5b02179055505050505050610611565b3373ffffffffffffffffffffffffffffffffffffffff168173ffffffffffffffffffffffffffffffffffffffff16036102b5576040517f08c379a00000000000000000000000000000000000000000000000000000000081526004016102ac906105f1565b60405180910390fd5b80600160006101000a81548173ffffffffffffffffffffffffffffffffffffffff021916908373ffffffffffffffffffffffffffffffffffffffff1602179055508073ffffffffffffffffffffffffffffffffffffffff1660008054906101000a900473ffffffffffffffffffffffffffffffffffffffff1673ffffffffffffffffffffffffffffffffffffffff167fed8889f560326eb138920d842192f0eb3dd22b4f139c87a2c57538e05bae127860405160405180910390a350565b600080fd5b600073ffffffffffffffffffffffffffffffffffffffff82169050919050565b60006103a382610378565b9050919050565b6103b381610398565b81146103be57600080fd5b50565b6000815190506103d0816103aa565b92915050565b6000819050919050565b6103e9816103d6565b81146103f457600080fd5b50565b600081519050610406816103e0565b92915050565b6000819050919050565b61041f8161040c565b811461042a57600080fd5b50565b60008151905061043c81610416565b92915050565b600063ffffffff82169050919050565b61045b81610442565b811461046657600080fd5b50565b60008151905061047881610452565b92915050565b600080600080600060a0868803121561049a57610499610373565b5b60006104a8888289016103c1565b95505060206104b9888289016103f7565b94505060406104ca888289016103f7565b93505060606104db8882890161042d565b92505060806104ec88828901610469565b9150509295509295909350565b600082825260208201905092915050565b7f43616e6e6f7420736574206f776e657220746f207a65726f0000000000000000600082015250565b60006105406018836104f9565b915061054b8261050a565b602082019050919050565b6000602082019050818103600083015261056f81610533565b9050919050565b7f4e487b7100000000000000000000000000000000000000000000000000000000600052602160045260246000fd5b7f43616e6e6f74207472616e7366657220746f2073656c66000000000000000000600082015250565b60006105db6017836104f9565b91506105e6826105a5565b602082019050919050565b6000602082019050818103600083015261060a816105ce565b9050919050565b60805160a05160c05160e05161010051611dc161066360003960006107b101526000818161040e0152610c4e0152600061069f0152600061064801526000818161066e0152610c280152611dc16000f3fe6080604052600436106101145760003560e01c806379ba5097116100a0578063de3d9fb711610064578063de3d9fb71461036a578063edca914c14610395578063f2fde38b1461039f578063f34f7ae1146103c8578063fd6673f5146103df57610114565b806379ba5097146102a95780638ba05b0e146102c05780638da5cb5b146102eb5780638ea98117146103165780639eccacf61461033f57610114565b8063473f1ddc116100e7578063473f1ddc146101d3578063522a1f0b146101fe57806353a2c19a146102155780636b68c03c146102405780636e04ff0d1461026b57610114565b806309bc33a7146101195780631fe543e3146101445780634585e33b1461016d578063460e204914610196575b600080fd5b34801561012557600080fd5b5061012e61040a565b60405161013b919061128e565b60405180910390f35b34801561015057600080fd5b5061016b6004803603810190610166919061134e565b610432565b005b34801561017957600080fd5b50610194600480360381019061018f9190611404565b6104f8565b005b3480156101a257600080fd5b506101bd60048036038101906101b89190611451565b610560565b6040516101ca91906114bf565b60405180910390f35b3480156101df57600080fd5b506101e86105a8565b6040516101f591906114bf565b60405180910390f35b34801561020a57600080fd5b506102136105d2565b005b34801561022157600080fd5b5061022a610789565b60405161023791906114f9565b60405180910390f35b34801561024c57600080fd5b50610255610792565b604051610262919061158b565b60405180910390f35b34801561027757600080fd5b50610292600480360381019061028d91906116e7565b6107a9565b6040516102a09291906117ca565b60405180910390f35b3480156102b557600080fd5b506102be610855565b005b3480156102cc57600080fd5b506102d56109ea565b6040516102e2919061128e565b60405180910390f35b3480156102f757600080fd5b506103006109f4565b60405161030d91906114bf565b60405180910390f35b34801561032257600080fd5b5061033d60048036038101906103389190611826565b610a1d565b005b34801561034b57600080fd5b50610354610bfe565b60405161036191906118b2565b60405180910390f35b34801561037657600080fd5b5061037f610c24565b60405161038c919061128e565b60405180910390f35b61039d610c4c565b005b3480156103ab57600080fd5b506103c660048036038101906103c19190611826565b610dbb565b005b3480156103d457600080fd5b506103dd610dcf565b005b3480156103eb57600080fd5b506103f4610dfc565b604051610401919061128e565b60405180910390f35b60007f0000000000000000000000000000000000000000000000000000000000000000905090565b600260009054906101000a900473ffffffffffffffffffffffffffffffffffffffff1673ffffffffffffffffffffffffffffffffffffffff163373ffffffffffffffffffffffffffffffffffffffff16146104e85733600260009054906101000a900473ffffffffffffffffffffffffffffffffffffffff166040517f1cf993f40000000000000000000000000000000000000000000000000000000081526004016104df9291906118cd565b60405180910390fd5b6104f3838383610e09565b505050565b6000610512604051806020016040528060008152506107a9565b5090508061054c576040517f35ae29b400000000000000000000000000000000000000000000000000000000815260040160405180910390fd5b4260078190555061055b6105d2565b505050565b600060058281548110610576576105756118f6565b5b9060005260206000200160009054906101000a900473ffffffffffffffffffffffffffffffffffffffff169050919050565b6000600460009054906101000a900473ffffffffffffffffffffffffffffffffffffffff16905090565b6001600660006101000a81548160ff021916908360018111156105f8576105f7611514565b5b0217905550600260009054906101000a900473ffffffffffffffffffffffffffffffffffffffff1673ffffffffffffffffffffffffffffffffffffffff16639b1c385e6040518060c001604052807f000000000000000000000000000000000000000000000000000000000000000081526020017f00000000000000000000000000000000000000000000000000000000000000008152602001600361ffff1681526020017f000000000000000000000000000000000000000000000000000000000000000063ffffffff168152602001600163ffffffff1681526020016106f0604051806020016040528060001515815250610fe3565b8152506040518263ffffffff1660e01b815260040161070f9190611a4c565b6020604051808303816000875af115801561072e573d6000803e3d6000fd5b505050506040513d601f19601f820116820180604052508101906107529190611a83565b6003819055506003547feddaba8a57dcfd3a637ac76edea7af81443028e0bd6e6cb23bd210a4a85ba85660405160405180910390a2565b60006001905090565b6000600660009054906101000a900460ff16905090565b6000606060007f0000000000000000000000000000000000000000000000000000000000000000600754426107de9190611adf565b11905060008060058054905011905060008047119050600080600181111561080957610808611514565b5b600660009054906101000a900460ff16600181111561082b5761082a611514565b5b1490508380156108385750825b80156108415750815b801561084a5750805b955050505050915091565b600160009054906101000a900473ffffffffffffffffffffffffffffffffffffffff1673ffffffffffffffffffffffffffffffffffffffff163373ffffffffffffffffffffffffffffffffffffffff16146108e5576040517f08c379a00000000000000000000000000000000000000000000000000000000081526004016108dc90611b70565b60405180910390fd5b60008060009054906101000a900473ffffffffffffffffffffffffffffffffffffffff169050336000806101000a81548173ffffffffffffffffffffffffffffffffffffffff021916908373ffffffffffffffffffffffffffffffffffffffff1602179055506000600160006101000a81548173ffffffffffffffffffffffffffffffffffffffff021916908373ffffffffffffffffffffffffffffffffffffffff1602179055503373ffffffffffffffffffffffffffffffffffffffff168173ffffffffffffffffffffffffffffffffffffffff167f8be0079c531659141344cd1fd0a4f28419497f9722a3daafe3b4186f6b6457e060405160405180910390a350565b6000600754905090565b60008060009054906101000a900473ffffffffffffffffffffffffffffffffffffffff16905090565b610a256109f4565b73ffffffffffffffffffffffffffffffffffffffff163373ffffffffffffffffffffffffffffffffffffffff1614158015610aae5750600260009054906101000a900473ffffffffffffffffffffffffffffffffffffffff1673ffffffffffffffffffffffffffffffffffffffff163373ffffffffffffffffffffffffffffffffffffffff1614155b15610b1d5733610abc6109f4565b600260009054906101000a900473ffffffffffffffffffffffffffffffffffffffff166040517f061db9c1000000000000000000000000000000000000000000000000000000008152600401610b1493929190611b90565b60405180910390fd5b600073ffffffffffffffffffffffffffffffffffffffff168173ffffffffffffffffffffffffffffffffffffffff1603610b83576040517fd92e233d00000000000000000000000000000000000000000000000000000000815260040160405180910390fd5b80600260006101000a81548173ffffffffffffffffffffffffffffffffffffffff021916908373ffffffffffffffffffffffffffffffffffffffff1602179055507fd1a6a14209a385a964d036e404cb5cfb71f4000cdb03c9366292430787261be681604051610bf391906114bf565b60405180910390a150565b600260009054906101000a900473ffffffffffffffffffffffffffffffffffffffff1681565b60007f0000000000000000000000000000000000000000000000000000000000000000905090565b7f0000000000000000000000000000000000000000000000000000000000000000341015610ca6576040517f01f7435400000000000000000000000000000000000000000000000000000000815260040160405180910390fd5b60006001811115610cba57610cb9611514565b5b600660009054906101000a900460ff166001811115610cdc57610cdb611514565b5b14610d13576040517fe76be6fc00000000000000000000000000000000000000000000000000000000815260040160405180910390fd5b6005339080600181540180825580915050600190039060005260206000200160009091909190916101000a81548173ffffffffffffffffffffffffffffffffffffffff021916908373ffffffffffffffffffffffffffffffffffffffff1602179055503373ffffffffffffffffffffffffffffffffffffffff167f22949fb111628ecd7b4062e944109804b256656bc00fc690af62b9a6105154d360405160405180910390a2565b610dc361107b565b610dcc8161110b565b50565b6001600660006101000a81548160ff02191690836001811115610df557610df4611514565b5b0217905550565b6000600580549050905090565b600060058054905083836000818110610e2557610e246118f6565b5b90506020020135610e369190611bf6565b9050600060058281548110610e4e57610e4d6118f6565b5b9060005260206000200160009054906101000a900473ffffffffffffffffffffffffffffffffffffffff16905080600460006101000a81548173ffffffffffffffffffffffffffffffffffffffff021916908373ffffffffffffffffffffffffffffffffffffffff1602179055506000600660006101000a81548160ff02191690836001811115610ee257610ee1611514565b5b021790555060008173ffffffffffffffffffffffffffffffffffffffff1647604051610f0d90611c58565b60006040518083038185875af1925050503d8060008114610f4a576040519150601f19603f3d011682016040523d82523d6000602084013e610f4f565b606091505b5050905080610f8a576040517f061104de00000000000000000000000000000000000000000000000000000000815260040160405180910390fd5b8173ffffffffffffffffffffffffffffffffffffffff167f5b690ec4a06fe979403046eaeea5b3ce38524683c3001f662c8b5a829632f7df60405160405180910390a260056000610fdb9190611237565b505050505050565b60607f92fd13387c7fe7befbc38d303d6468778fb9731bc4583f17d92989c6fcfdeaaa826040516024016110179190611c98565b604051602081830303815290604052907bffffffffffffffffffffffffffffffffffffffffffffffffffffffff19166020820180517bffffffffffffffffffffffffffffffffffffffffffffffffffffffff83818316178352505050509050919050565b60008054906101000a900473ffffffffffffffffffffffffffffffffffffffff1673ffffffffffffffffffffffffffffffffffffffff163373ffffffffffffffffffffffffffffffffffffffff1614611109576040517f08c379a000000000000000000000000000000000000000000000000000000000815260040161110090611cff565b60405180910390fd5b565b3373ffffffffffffffffffffffffffffffffffffffff168173ffffffffffffffffffffffffffffffffffffffff1603611179576040517f08c379a000000000000000000000000000000000000000000000000000000000815260040161117090611d6b565b60405180910390fd5b80600160006101000a81548173ffffffffffffffffffffffffffffffffffffffff021916908373ffffffffffffffffffffffffffffffffffffffff1602179055508073ffffffffffffffffffffffffffffffffffffffff1660008054906101000a900473ffffffffffffffffffffffffffffffffffffffff1673ffffffffffffffffffffffffffffffffffffffff167fed8889f560326eb138920d842192f0eb3dd22b4f139c87a2c57538e05bae127860405160405180910390a350565b50805460008255906000526020600020908101906112559190611258565b50565b5b80821115611271576000816000905550600101611259565b5090565b6000819050919050565b61128881611275565b82525050565b60006020820190506112a3600083018461127f565b92915050565b6000604051905090565b600080fd5b600080fd5b6112c681611275565b81146112d157600080fd5b50565b6000813590506112e3816112bd565b92915050565b600080fd5b600080fd5b600080fd5b60008083601f84011261130e5761130d6112e9565b5b8235905067ffffffffffffffff81111561132b5761132a6112ee565b5b602083019150836020820283011115611347576113466112f3565b5b9250929050565b600080600060408486031215611367576113666112b3565b5b6000611375868287016112d4565b935050602084013567ffffffffffffffff811115611396576113956112b8565b5b6113a2868287016112f8565b92509250509250925092565b60008083601f8401126113c4576113c36112e9565b5b8235905067ffffffffffffffff8111156113e1576113e06112ee565b5b6020830191508360018202830111156113fd576113fc6112f3565b5b9250929050565b6000806020838503121561141b5761141a6112b3565b5b600083013567ffffffffffffffff811115611439576114386112b8565b5b611445858286016113ae565b92509250509250929050565b600060208284031215611467576114666112b3565b5b6000611475848285016112d4565b91505092915050565b600073ffffffffffffffffffffffffffffffffffffffff82169050919050565b60006114a98261147e565b9050919050565b6114b98161149e565b82525050565b60006020820190506114d460008301846114b0565b92915050565b600063ffffffff82169050919050565b6114f3816114da565b82525050565b600060208201905061150e60008301846114ea565b92915050565b7f4e487b7100000000000000000000000000000000000000000000000000000000600052602160045260246000fd5b6002811061155457611553611514565b5b50565b600081905061156582611543565b919050565b600061157582611557565b9050919050565b6115858161156a565b82525050565b60006020820190506115a0600083018461157c565b92915050565b600080fd5b6000601f19601f8301169050919050565b7f4e487b7100000000000000000000000000000000000000000000000000000000600052604160045260246000fd5b6115f4826115ab565b810181811067ffffffffffffffff82111715611613576116126115bc565b5b80604052505050565b60006116266112a9565b905061163282826115eb565b919050565b600067ffffffffffffffff821115611652576116516115bc565b5b61165b826115ab565b9050602081019050919050565b82818337600083830152505050565b600061168a61168584611637565b61161c565b9050828152602081018484840111156116a6576116a56115a6565b5b6116b1848285611668565b509392505050565b600082601f8301126116ce576116cd6112e9565b5b81356116de848260208601611677565b91505092915050565b6000602082840312156116fd576116fc6112b3565b5b600082013567ffffffffffffffff81111561171b5761171a6112b8565b5b611727848285016116b9565b91505092915050565b60008115159050919050565b61174581611730565b82525050565b600081519050919050565b600082825260208201905092915050565b60005b8381101561178557808201518184015260208101905061176a565b60008484015250505050565b600061179c8261174b565b6117a68185611756565b93506117b6818560208601611767565b6117bf816115ab565b840191505092915050565b60006040820190506117df600083018561173c565b81810360208301526117f18184611791565b90509392505050565b6118038161149e565b811461180e57600080fd5b50565b600081359050611820816117fa565b92915050565b60006020828403121561183c5761183b6112b3565b5b600061184a84828501611811565b91505092915050565b6000819050919050565b600061187861187361186e8461147e565b611853565b61147e565b9050919050565b600061188a8261185d565b9050919050565b600061189c8261187f565b9050919050565b6118ac81611891565b82525050565b60006020820190506118c760008301846118a3565b92915050565b60006040820190506118e260008301856114b0565b6118ef60208301846114b0565b9392505050565b7f4e487b7100000000000000000000000000000000000000000000000000000000600052603260045260246000fd5b6000819050919050565b61193881611925565b82525050565b61194781611275565b82525050565b600061ffff82169050919050565b6119648161194d565b82525050565b611973816114da565b82525050565b600082825260208201905092915050565b60006119958261174b565b61199f8185611979565b93506119af818560208601611767565b6119b8816115ab565b840191505092915050565b600060c0830160008301516119db600086018261192f565b5060208301516119ee602086018261193e565b506040830151611a01604086018261195b565b506060830151611a14606086018261196a565b506080830151611a27608086018261196a565b5060a083015184820360a0860152611a3f828261198a565b9150508091505092915050565b60006020820190508181036000830152611a6681846119c3565b905092915050565b600081519050611a7d816112bd565b92915050565b600060208284031215611a9957611a986112b3565b5b6000611aa784828501611a6e565b91505092915050565b7f4e487b7100000000000000000000000000000000000000000000000000000000600052601160045260246000fd5b6000611aea82611275565b9150611af583611275565b9250828203905081811115611b0d57611b0c611ab0565b5b92915050565b600082825260208201905092915050565b7f4d7573742062652070726f706f736564206f776e657200000000000000000000600082015250565b6000611b5a601683611b13565b9150611b6582611b24565b602082019050919050565b60006020820190508181036000830152611b8981611b4d565b9050919050565b6000606082019050611ba560008301866114b0565b611bb260208301856114b0565b611bbf60408301846114b0565b949350505050565b7f4e487b7100000000000000000000000000000000000000000000000000000000600052601260045260246000fd5b6000611c0182611275565b9150611c0c83611275565b925082611c1c57611c1b611bc7565b5b828206905092915050565b600081905092915050565b50565b6000611c42600083611c27565b9150611c4d82611c32565b600082019050919050565b6000611c6382611c35565b9150819050919050565b611c7681611730565b82525050565b602082016000820151611c926000850182611c6d565b50505050565b6000602082019050611cad6000830184611c7c565b92915050565b7f4f6e6c792063616c6c61626c65206279206f776e657200000000000000000000600082015250565b6000611ce9601683611b13565b9150611cf482611cb3565b602082019050919050565b60006020820190508181036000830152611d1881611cdc565b9050919050565b7f43616e6e6f74207472616e7366657220746f2073656c66000000000000000000600082015250565b6000611d55601783611b13565b9150611d6082611d1f565b602082019050919050565b60006020820190508181036000830152611d8481611d48565b905091905056fea26469706673582212203e0abe80b0e4f1ac7856fff31cb5305c0760936a0506d99a4c105bad3f69ea8464736f6c634300081c0033",
  "devdoc": {
    "kind": "dev",
    "methods": {},
    "version": 1
  },
  "userdoc": {
    "kind": "user",
    "methods": {
      "acceptOwnership()": {
        "notice": "Allows an ownership transfer to be completed by the recipient."
      },
      "owner()": {
        "notice": "Get the current owner"
      },
      "setCoordinator(address)": {
        "notice": "Sets the VRF Coordinator addressThis method should only be callable by the coordinator or contract owner"
      },
      "transferOwnership(address)": {
        "notice": "Allows an owner to begin transferring ownership to a new address."
      }
    },
    "version": 1
  },
  "storageLayout": {
    "storage": [
      {
        "astId": 97,
        "contract": "contracts/lottery.sol:Lottery",
        "label": "s_owner",
        "offset": 0,
        "slot": "0",
        "type": "t_address"
      },
      {
        "astId": 99,
        "contract": "contracts/lottery.sol:Lottery",
        "label": "s_pendingOwner",
        "offset": 0,
        "slot": "1",
        "type": "t_address"
      },
      {
        "astId": 2380,
        "contract": "contracts/lottery.sol:Lottery",
        "label": "s_vrfCoordinator",
        "offset": 0,
        "slot": "2",
        "type": "t_contract(IVRFCoordinatorV2Plus)2529"
      },
      {
        "astId": 3540,
        "contract": "contracts/lottery.sol:Lottery",
        "label": "s_requestId",
        "offset": 0,
        "slot": "3",
        "type": "t_uint256"
      },
      {
        "astId": 3542,
        "contract": "contracts/lottery.sol:Lottery",
        "label": "s_recentWinner",
        "offset": 0,
        "slot": "4",
        "type": "t_address"
      },
      {
        "astId": 3545,
        "contract": "contracts/lottery.sol:Lottery",
        "label": "s_players",
        "offset": 0,
        "slot": "5",
        "type": "t_array(t_address_payable)dyn_storage"
      },
      {
        "astId": 3550,
        "contract": "contracts/lottery.sol:Lottery",
        "label": "s_lotteryState",
        "offset": 0,
        "slot": "6",
        "type": "t_enum(LotteryState)3526"
      },
      {
        "astId": 3552,
        "contract": "contracts/lottery.sol:Lottery",
        "label": "s_lastTimeStamp",
        "offset": 0,
        "slot": "7",
        "type": "t_uint256"
      }
    ],
    "types": {
      "t_address": {
        "encoding": "inplace",
        "label": "address",
        "numberOfBytes": "20"
      },
      "t_address_payable": {
        "encoding": "inplace",
        "label": "address payable",
        "numberOfBytes": "20"
      },
      "t_array(t_address_payable)dyn_storage": {
        "base": "t_address_payable",
        "encoding": "dynamic_array",
        "label": "address payable[]",
        "numberOfBytes": "32"
      },
      "t_contract(IVRFCoordinatorV2Plus)2529": {
        "encoding": "inplace",
        "label": "contract IVRFCoordinatorV2Plus",
        "numberOfBytes": "20"
      },
      "t_enum(LotteryState)3526": {
        "encoding": "inplace",
        "label": "enum Lottery.LotteryState",
        "numberOfBytes": "1"
      },
      "t_uint256": {
        "encoding": "inplace",
        "label": "uint256",
        "numberOfBytes": "32"
      }
    }
  }
}